:100000000C94FF010C9427020C9427020C942702F5
:100010000C9427020C9427020C9427020C942702BC
:100020000C9427020C9427020C94290C0C94980C25
:100030000C9427020C9427020C9427020C9427029C
:100040000C9427020C9427020C9427020C9427028C
:100050000C9427020C9427020C9427020C94CA0ECD
:100060000C9427020C9427020C9427020C9427026C
:100070000C9427020C9427020C9427020C9427025C
:100080000C9427020C9427020C9427020C9427024C
:100090000C9427020C9427020C9427020C9427023C
:1000A0000C9427020C9427020C94270200000000F5
:1000B0000000000000000000000000002A002B00EB
:1000C0002800000000000000000000000000000008
:1000D0000000000000000000000000000000000020
:1000E0000000000000000000000000002C001E02C4
:1000F00034022002210222022402340026022702B6
:1001000025022E0236002D003700380027001E0081
:100110001F002000210022002300240025002600CB
:100120003302330036022E00370238021F02040267
:10013000050206020702080209020A020B020C026B
:100140000D020E020F02100211021202130214021B
:10015000150216021702180219021A021B021C02CB
:100160001D022F003100300023022D023500040053
:10017000050006000700080009000A000B000C003B
:100180000D000E000F0010001100120013001400EB
:10019000150016001700180019001A001B001C009B
:1001A0001D002F0231023002350200000000000065
:1001B000000000000000000000000000000000003F
:1001C000000000000000000000000000000000002F
:1001D000000000000000000000000000000000001F
:1001E000000000000000000000000000000000000F
:1001F00000000000000000000000000000000000FF
:1002000000000000000000000000000000000000EE
:1002100000000000000000000000000000000000DE
:1002200000000000000000000000000000000000CE
:1002300000000000000000000000000000000000BE
:1002400000000000000000000000000000000000AE
:10025000000000000000000000000000000000009E
:10026000000000000000000000000000000000008E
:10027000000000000000000000000000000000007E
:10028000000000000000000000000000000000006E
:10029000000000000000000000000000000000005E
:1002A000000000000000000000000000000000004E
:1002B000240027002A002D00300000000000250047
:1002C00028002B002E003100000000002300260033
:1002D00029002C002F000404040404030405020276
:1002E00002020403020202020606060606060404CF
:1002F0000202020404040802011040804010204061
:10030000804080080204018040201002011080100B
:10031000204040200000000200090F0000030401FB
:10032000000C0000000000000000000000000000C1
:100330000000080B00020202000009040000010294
:10034000020000052400100105240101010424021B
:100350000605240600010705810310004009040179
:1003600000020A00000007050202400000070583A2
:10037000024000000403090412010002EF020140E0
:100380004F1B0692000101020301537061726B461C
:10039000756E00537061726B46756E2050726F20DF
:1003A0004D6963726F0005010906A1018502050709
:1003B00019E029E715002501750195088102050C52
:1003C00095017508150026FF00190029FF81000519
:1003D0000795067508150026E700190029E7810032
:1003E000C0050C0901A1018504150026FF031900B1
:1003F0002AFF03950475108100C0140F3C151124C9
:100400001FBECFEFDAE0DEBFCDBF23E0ACEFB1E03F
:1004100001C01D92AF3AB207E1F711E0A0E0B1E0F0
:10042000E4E1FFE202C005900D92AC3FB107D9F7BD
:1004300011E0CEEFD1E004C02197FE010E947C15AF
:10044000CD3FD107C9F70E94FC0F0C947D170C9487
:100450000000FC0180913A02882311F13FB7F89423
:1004600082E08093E9002091F200822F90E018163C
:10047000190614F481E090E0882339F0289844E6C6
:10048000409339024091F1004083222339F02091BA
:10049000F200211103C02BE62093E8003FBF08952E
:1004A0008FEF9FEF089540912C0250912D022091E3
:1004B0002A0230912B0242175307B4F49091E800BE
:1004C0009570E1F39091E80092FD19C08093F100DE
:1004D00080912C0290912D0201968F739927892B80
:1004E00019F48EEF8093E80080912C0290912D02F8
:1004F000019690932D0280932C0281E0089580E074
:100500000895EF92FF920F931F93CF93DF93F82EEE
:10051000192FE62E042F81E0860F880F0E945302C8
:1005200083E00E945302CF2DD12FEC0EFD2EF11C43
:10053000CE15DF05B9F007FF13C0FE0184910E94BC
:100540005302182F80E00E945302812321968111CB
:10055000EFCFDF91CF911F910F91FF90EF90089512
:100560008881EDCF81E0F5CFDF92EF92FF920F937C
:100570001F93CF93DF93D82E8A01EB017B01E40E0A
:10058000F51ECE15DF0559F0D7FE12C0FE0184918D
:100590000E94530221968111F4CF0FEF1FEFC80183
:1005A000DF91CF911F910F91FF90EF90DF90089511
:1005B0008881EECF2FB7F89487708093E9009091EF
:1005C000E800892F807295FF04C09091F20080E4CA
:1005D000891B2FBF0895615030F02091F100FC017C
:1005E00020830196F8CF289884E6809339020895F5
:1005F000AF92BF92CF92DF92EF92FF920F931F9331
:10060000CF93DF936C017B018B01040F151FEB016E
:100610005E01AE18BF08C017D10759F06991D60125
:10062000ED91FC910190F081E02DC6010995892B97
:1006300079F7C501DF91CF911F910F91FF90EF9056
:10064000DF90CF90BF90AF900895809122028111EA
:100650000DC082E080931E0284E080931F021092FE
:1006600021021092200281E0809322028EE192E02A
:1006700008950F931F93CF93DF931F92CDB7DEB7EB
:1006800082E0898342E450E062E373E080E80E9404
:10069000B4020E942503DC0112960D911C910115F4
:1006A000110589F0D801ED91FC910280F381E02DD4
:1006B000BE016F5F7F4FC801099597FD04C0F80127
:1006C00000851185ECCF89810F90DF91CF911F912B
:1006D0000F910895CF93DF931F92CDB7DEB7698353
:1006E000DC01ED91FC910280F381E02D41E050E0CE
:1006F000BE016F5F7F4F09950F90DF91CF910895F5
:1007000083E08093E9008091F200882319F08AE366
:100710008093E800089583E00E94DA0290E0089553
:10072000CF93DF931F92CDB7DEB7FC01848595850B
:1007300097FD08C02FEF3FEF358724870F90DF919B
:10074000CF910895CE0101960E942902019719F4D4
:10075000898190E0F3CF8FEF9FEFF0CF0F931F933E
:10076000CF93DF931F92CDB7DEB78C01FC01848558
:10077000958597FF0BC0CE0101960E942902019733
:1007800071F4898190E0F80195878487F801848568
:1007900095850F90DF91CF911F910F9108958FEF65
:1007A0009FEFF1CFFC018485958597FD0BC09FB726
:1007B000F89482E08093E9008091F2009FBF90E07E
:1007C000019608959FB7F89482E08093E9008091A4
:1007D000F2009FBF90E0089581508F3008F047C02D
:1007E000E82FF0E0EA50FC4F0C947C15130417043A
:1007F00005040B040F043704370437041A042004DB
:10080000240428042E0437043204809180008F775A
:10081000809380000895809180008F7DF9CF809132
:100820008000877FF5CF84B58F7784BD089584B528
:100830008F7DFBCF809190008F77809390000895FB
:10084000809190008F7DF9CF80919000877FF5CFC8
:100850008091C0008F778093C00008958091C00080
:100860008F7DF9CF8091C200877F8093C200089569
:10087000CF93DF93282F30E0F901EC5EFC4F849199
:10088000F901EB50FD4FD491F901EA52FD4FC491AB
:10089000CC23A1F081110E94EC03EC2FF0E0EE0FCD
:1008A000FF1FE853FD4FA591B491EC91ED2381E03A
:1008B00090E009F480E0DF91CF91089580E090E02E
:1008C000FACF1F93CF93DF93282F30E0F901EC5E2E
:1008D000FC4F8491F901EB50FD4FD491F901EA529C
:1008E000FD4FC491CC23A9F0162F81110E94EC0377
:1008F000EC2FF0E0EE0FFF1FE654FD4FA591B491F1
:100900008FB7F894EC91111108C0D095DE23DC93D9
:100910008FBFDF91CF911F910895DE2BF8CFCF933A
:10092000DF9390E0FC01EB50FD4F24918A529D4FE4
:10093000FC0184918823C9F090E0880F991FFC0185
:10094000E455FD4FA591B491FC01E654FD4FC591CE
:10095000D49161110DC09FB7F8948C91209582239A
:100960008C938881282328839FBFDF91CF9108959E
:10097000623051F49FB7F8943C91822F8095832385
:100980008C93E8812E2BEFCF8FB7F894EC912E2B20
:100990002C938FBFEACF3FB7F89480911A029091C1
:1009A0001B02A0911C02B0911D0226B5A89B05C098
:1009B0002F3F19F00196A11DB11D3FBFBA2FA92FDE
:1009C000982F8827BC01CD01620F711D811D911DDB
:1009D00042E0660F771F881F991F4A95D1F7089547
:1009E0008F929F92AF92BF92CF92DF92EF92FF923F
:1009F0004B015C010E94CB046B017C010E94CB0483
:100A00006C197D098E099F09683E73408105910527
:100A1000A8F321E0821A9108A108B10888EEC80E57
:100A200083E0D81EE11CF11C81149104A104B104DF
:100A300029F7FF90EF90DF90CF90BF90AF909F90FD
:100A40008F9008957F928F929F92AF92BF92CF9294
:100A5000DF92EF92FF920F931F93CF93DF93C82EF5
:100A60008B017A0180913A02811110C08FEF9FEFC4
:100A7000DF91CF911F910F91FF90EF90DF90CF907A
:100A8000BF90AF909F908F907F900895809130029B
:100A900080FF05C08091E00082608093E000CE2D51
:100AA000DF2DD12C8AEFB82E8C2D8770982E8C2DAF
:100AB0008072882E8C2D8074782E9AE3A92E209730
:100AC00019F4DD2009F452C08C2D0E94DA02811144
:100AD0000AC0BA94BB2051F261E070E080E090E07F
:100AE0000E94F004ECCF8C171D0611F00CF08C2F37
:100AF0009FB7F8949092E9002091E80025FD02C08C
:100B00009FBFDDCF282F30E0C21BD30B882029F0F8
:100B10008150A0F01092F100FBCFF801C7FC0AC091
:100B2000815050F041914093F100FACF44914093AD
:100B3000F10031968150D0F7020F131FDD2021F014
:100B4000A092E800D12CDCCF8091E80085FD07C0A1
:100B5000A092E800DD24D394209791F2F3CF209760
:100B600079F6772069F2A092E800CACF5D9884E612
:100B700080932F02C7017CCFCF93DF93EC0180914C
:100B80001201882331F083E00E942205181619060D
:100B900034F081E090E09B838A8380E090E0DF91F5
:100BA000CF9108952FB7F8946091160270911702B3
:100BB00080911802909119022FBF08958F929F92F1
:100BC000AF92BF92EF92FF920F931F93CF93DF9359
:100BD000FC012081318137FD49C0EC01822F0E9448
:100BE00038047C01088519850E94D2054B015C01FF
:100BF0008AA99BA9ACA9BDA9B501A401481B590BA1
:100C00006A0B7B0B8EA59FA58230910509F475C0F8
:100C100054F40097E1F08130910599F199AB88ABDC
:100C20001FA61EA623C08630910509F4CAC08730CE
:100C3000910509F4E5C08330910581F7E016F106CE
:100C400009F07AC099AB88AB81E090E031C0E01642
:100C5000F10661F419AA18AA81E090E09FA78EA777
:100C60008AAA9BAAACAABDAA1FAA1EAADF91CF91ED
:100C70001F910F91FF90EF90BF90AF909F908F903A
:100C80000895E016F106D9F00A811B8130E020E0DA
:100C9000401751076207730738F428A939A999AB9F
:100CA00088AB3FA72EA7E2CF99AB88AB82E090E05C
:100CB0009FA78EA78AAA9BAAACAABDAAD7CF8E81CE
:100CC0009F81B0E0A0E084179507A607B70770F6EC
:100CD000EC8DFD8D309709F00995EE8DFF8D3097E5
:100CE00019F088A199A109958EA59FA599AB88AB0C
:100CF00086E090E09FA78EA7B9CF8A809B80B12C19
:100D0000A12CE016F10689F4481559056A057B0502
:100D100020F28EA99FA901969FAB8EAB82E090E056
:100D200099AB88AB83E090E0E5CF481559056A059B
:100D30007B0508F49BCFEDCF8EA99FA90C811D8167
:100D400030E020E0041715072607370730F028ADFC
:100D500039AD2817390709F089CF81309105B9F4E9
:100D6000EA85FB85309709F00995EC85FD8530977C
:100D700019F08E859F8509951FA61EA619AA18AA87
:100D80001FAA1EAA1AAA1BAA1CAA1DAA6FCF0297E5
:100D900061F4E889F989309709F00995EA89FB89B6
:100DA000309751F38C899D89E6CFEE89FF89309782
:100DB00009F00995E88DF98D3097F1F28A8D9B8DB8
:100DC000DACFE016F10629F099AB88AB87E090E026
:100DD0006FCFE8A5F9A5309709F00995EAA5FBA51D
:100DE000309709F443CF8CA59DA5DF91CF911F913A
:100DF0000F91FF90EF90BF90AF909F908F900994CC
:100E00008A809B80B12CA12CE016F10699F448153C
:100E100059056A057B0508F440CFEAA1FBA130978C
:100E200009F00995ECA1FDA1309709F4A5CF8EA199
:100E30009FA1A1CF481559056A057B0508F416CF77
:100E4000ECCFDC01FB0112962C91129784819581E5
:100E50002817190641F491818081813A31F49D7FF0
:100E600081E0913009F080E008958132E1F79B3014
:100E700029F482811F968C9381E008959A3099F726
:100E8000828150968C93F8CFAF92BF92CF92DF922F
:100E9000EF92FF920F931F93CF93DF931F92CDB7E3
:100EA000DEB77C0169836A01590141E050E0BE016F
:100EB0006F5F7F4FFC0183810E9422058C0197FDAB
:100EC0000BC0F7018381A501B60180640E94220551
:100ED000080F191F97FD8C01C8010F90DF91CF916A
:100EE0001F910F91FF90EF90DF90CF90BF90AF9048
:100EF0000895DC01FB0188E4808389E4818384E434
:100F000082831D969C911D979F709F5B93831D9676
:100F10008D919C9124E0969587952A95E1F78F70A5
:100F20008F5B848385E00895EF92FF920F931F9368
:100F3000CF93DF93FB012081213871F52381223289
:100F400059F5DC0112964C91248135814217130624
:100F500019F5EC010B851C85F12CE12C011511050F
:100F600089F0F801448155816281738180E80E9493
:100F7000B4028F3F980749F0E80EF91ED8010D9191
:100F80001C91ECCF81E08F87C701DF91CF911F913A
:100F90000F91FF90EF90089590E080E0F6CFCF930F
:100FA000DF93CDB7DEB769970FB6F894DEBF0FBEFB
:100FB000CDBFFC01DB018C918F5F8C939E012D5F77
:100FC0003F4F8DE0D9011D928A95E9F729E02983E9
:100FD00084E08A8391E09D8383E08E832A8721E2E7
:100FE0002B879C879D879F8722E2288B27E02B8B6E
:100FF00025E02C8B8E8B20E430E0388F2F8B998F5F
:1010000082818B8395858685998B8A8B8381806885
:101010008D8B49E150E0BE016F5F7F4F80E00E9401
:10102000B40269960FB6F894DEBF0FBECDBFDF9154
:10103000CF910895CF93DF9380910D02811167C006
:1010400081E0809300028093010226E032E0309339
:1010500003022093020210920502109204022DE175
:1010600031E03093FD012093FC01109208021092B0
:10107000070210920A021092090280930B028093D9
:101080000C0281EC809306020E942503FC01818101
:1010900090910002482F490F5527551F48305105A0
:1010A0009CF5A281B381109709F52CEF31E03383D1
:1010B000228320812093FE018093FF018091010211
:1010C000820F808320910202A22FB09103028A2F07
:1010D000821B8917C8F481813D91C82FD0E0C05090
:1010E000DF4F38838F5F8183F2CFD90118962D911E
:1010F0003C91199721153105C1F72CEF31E0199674
:101100003C932E931897D5CF81E080930D028CEFFE
:1011100091E0DF91CF910895CF93DF93EC010E948E
:101120001A08AE014C5F5F4F28E030E062E0DF91CB
:10113000CF910C944407089590E080E008950F93B8
:101140001F93CF93DF93EB018A010E941A08980145
:10115000AE0164E0DF91CF911F910F910C94440791
:10116000CF93DF93EC01E5EBF2E090E080E021919A
:1011700031910196232B41F5880F991FFC01ED5405
:10118000FD4FD183C08348E050E065EB72E083EB14
:1011900092E00E949F08E3EBF2E08BEB92E0228169
:1011A0003381C217D30711F41382128232968E173D
:1011B0009F07A9F748E050E065EB72E083EB92E00F
:1011C000DF91CF910C949F088430910581F6DBCF9D
:1011D000FC019C01285F3F4F90E080E04481411179
:1011E000019614823196E217F307C1F70895CF9361
:1011F000DF9389E992E00E94E808EC01892B21F055
:1012000089E992E00E948C08CE01DF91CF91089588
:10121000CF93DF93DC0190E2960F9830B0F41496F0
:101220008C91149721E030E001C0220F9A95EAF7E3
:10123000442341F0282B14962C9381E090E0DF9119
:10124000CF91089520952823F6CFFD0136964423AB
:10125000D1F0CD010C96EF012991621771F3C817F7
:10126000D907D1F790E080E02191211105C0A80FA6
:10127000B91F16966C93E1CF019686309105A1F7C0
:1012800090E080E0DCCF90E080E02191621305C027
:10129000A80FB91F16961C92D0CF019686309105E3
:1012A000A1F7EECFCF93DF9341E0682F89E992E079
:1012B0000E940809EC01892B21F089E992E00E9443
:1012C0008C08CE01DF91CF910895CF93DF9388E210
:1012D0000E945209EC01892B61F040E068E289E943
:1012E00092E00E940809892B21F089E992E00E948E
:1012F0008C08CE01DF91CF910895CF92DF92FF92BB
:101300000F931F93CF93DF938C01F42EE62FF0E021
:10131000EE0FFF1FE455FF4FC590D490D801ED911B
:10132000FC910484F585E02D6C2DC8010995EC0134
:10133000892B11F4F11070C0D0FE0CC0D801ED91D2
:10134000FC910484F585E02D4F2D60EEC8010995D0
:10135000C82BD92BD1FE0CC0D801ED91FC9104848F
:10136000F585E02D4F2D61EEC8010995C82BD92BCD
:10137000D2FE0CC0D801ED91FC910484F585E02DDE
:101380004F2D62EEC8010995C82BD92BD3FE0CC096
:10139000D801ED91FC910484F585E02D4F2D63EE8D
:1013A000C8010995C82BD92BD4FE0CC0D801ED91EA
:1013B000FC910484F585E02D4F2D64EEC80109955C
:1013C000C82BD92BD5FE0CC0D801ED91FC9104841B
:1013D000F585E02D4F2D65EEC8010995C82BD92B59
:1013E000D6FE0CC0D801ED91FC910484F585E02D6A
:1013F0004F2D66EEC8010995C82BD92BD7FE0CC01E
:10140000D801ED91FC910484F585E02D4F2D67EE18
:10141000C8010995C82BD92BCE01DF91CF911F911F
:101420000F91FF90DF90CF9008950F931F93CF936C
:10143000DF93EC0140E00E947D098C01892B39F09B
:10144000E881F9810284F385E02DCE010995C80178
:10145000DF91CF911F910F9108950F931F93CF9319
:10146000DF93EC0141E00E947D098C01892B39F06A
:10147000E881F9810284F385E02DCE010995C80148
:10148000DF91CF911F910F910895FF920F931F93BA
:10149000CF93DF938C01F62E0E942D0AEC01892B4D
:1014A00021F06F2DC8010E94150ACE01DF91CF9166
:1014B0001F910F91FF900895FC01862F22E330E0E9
:1014C0003383228320E931E03583248320E233E033
:1014D000378326831386128615861486178616860A
:1014E000118A108A138A128A158A148A178A168A10
:1014F000118E108E138E128E158E148E178E168EE0
:1015000011A210A213A212A215A214A211A610A633
:1015100013A612A615A614A617A616A611AA10AAF7
:1015200021E030E031AF20AF6083718311861086F7
:1015300062E00C948F04FB0101900020E9F73197E1
:10154000AF01461B570BDC01ED91FC910280F3814A
:10155000E02D0994CF93DF93BC018BE392E00E94CE
:101560009B0AEC016FE471E08BE392E00E949B0A1E
:101570008C0F9D1FDF91CF910895BC0189E992E006
:101580000C949B0ACF93DF93EC018091BD02909164
:10159000BE02009759F02091BF023091C0022C1773
:1015A0003D0720F081E0DF91CF910895BE016F5F8C
:1015B0007F4F0E94A716009789F09093BE028093F8
:1015C000BD02D093C002C093BF022091C1023091EE
:1015D000C202232B39F7FC011082E4CF80E0E3CF75
:1015E0000F931F93CF93DF938C01EC0109900020A0
:1015F000E9F72197C81BD90BCE010E94C20A20919E
:10160000BD023091BE02811117C02115310519F0BC
:10161000C9010E941E161092BE021092BD021092C5
:10162000C2021092C1021092C0021092BF02DF915A
:10163000CF911F910F910895D093C202C093C10220
:10164000B801C901DF91CF911F910F910C947617CA
:1016500082E591E00E94F00A83EE0E94520964E65E
:1016600089E992E00E942D0A0C94F70882E591E046
:101670000E94F00A82E591E00C94AA0A8AE591E0C2
:101680000C94F00A8AE591E00E94F00A8AE591E064
:101690000C94AA0A88E691E00E94F00A83EE0E9468
:1016A000520962E789E992E00E942D0A0E94F70838
:1016B00068EC70E080E090E00E94F0048EE591E03C
:1016C0000E94BD0A0E94650964E175E080E090E037
:1016D0000E94F00482E691E00E94BD0A66E289E978
:1016E00092E00E94450A0E94650964E670E080E08D
:1016F00090E00E94F00485E691E00E94BD0A0E94FD
:10170000650964E670E080E090E00E94F00489E7FB
:1017100091E00E94BD0A0E94650964EF71E080E0DB
:1017200090E00E94F00460E47FE180E090E00E949D
:10173000F00489E891E00E94BD0A0E9465098BE8E7
:1017400091E00E94BD0A0C94650988E691E00E9430
:10175000F00A88E691E00C94AA0A84E991E00E94DC
:10176000F00A83EE0E94520962E789E992E00E9442
:101770002D0A0E94F70868EC70E080E090E00E947B
:10178000F0048EE591E00E94BD0A0E94650964E1C3
:1017900075E080E090E00E94F00482E691E00E9413
:1017A000BD0A66E289E992E00E94450A0E94650945
:1017B00064E670E080E090E00E94F00481E991E04E
:1017C0000E94BD0A0E94650964E670E080E090E036
:1017D0000E94F0048FE991E00E94BD0A0E94650911
:1017E00064EF71E080E090E00E94F00460E47FE14B
:1017F00080E090E00E94F0048BEA91E00E94BD0A34
:101800000E9465098BEA91E00E94BD0A0C9465096B
:1018100084E991E00E94F00A84E991E00C94AA0A1C
:101820002091C1023091C202232B39F421E0FC0146
:101830008081882361F020E00AC0BC018091BD0254
:101840009091BE020E946D1721E0892BA1F7822F93
:1018500008951F920F920FB60F9211248F939F93AA
:101860008091E1009091E100937F9093E10083FFEC
:101870000FC01092E90091E09093EB001092EC0001
:1018800092E39093ED0010923A0298E09093F0006A
:1018900082FF22C093E09093E9009091F200992397
:1018A00019F09AE39093E80090912F02992341F068
:1018B00090912F02915090932F02911101C05D9A47
:1018C00090913902992341F090913902915090936F
:1018D0003902911101C0289A84FF18C08091E2005A
:1018E0008E7E81608093E2008091E1008F7E809304
:1018F000E100809130028E7E8061809330029F9162
:101900008F910F900FBE0F901F90189580FFF7CF0B
:101910008091E2008E7E80618093E2008091E10000
:101920008E7E8093E100809130028E7E8160E5CFD3
:101930001F920F920FB60F921124CF92DF92EF9267
:10194000FF920F931F932F933F934F935F936F9348
:101950007F938F939F93AF93BF93EF93FF93CF9317
:10196000DF93CDB7DEB76C97DEBFCDBF1092E90035
:101970008091E80083FF25C068E0CE0145960E9473
:10198000EB0282EF8093E8008D8987FF39C0909148
:10199000E80090FFFCCF982F907609F034C19E8923
:1019A0004F89588D2F89F88C911131C0803861F59D
:1019B000809131028093F1001092F1008EEF8093BC
:1019C000E8006C960FB6F894DEBF0FBECDBFDF9176
:1019D000CF91FF91EF91BF91AF919F918F917F91A7
:1019E0006F915F914F913F912F911F910F91FF90B8
:1019F000EF90DF90CF900F900FBE0F901F90189533
:101A00009EEF9093E800C7CF1092F100D5CF9130B0
:101A100059F48111D3CF4130510581F680913102C3
:101A20008D7F80933102CACF933049F48111C6CFA4
:101A30004130510519F6809131028260F2CF953024
:101A400041F48091E80080FFFCCF20682093E30000
:101A5000B5CF963009F0A9C00B8D1C8D22E01092F5
:101A6000E90010922D0210922C02F2122EC0109258
:101A70002B0210922A020E9439031F8299E0998357
:101A8000FA8291E09E8390EA98879AEF9987209155
:101A90002C0230912D02275F3F4F3C832B838D8397
:101AA0001092E90010922D0210922C0210932B023A
:101AB00000932A0249E050E0BE016F5F7F4F80E053
:101AC0000E94B4020E94390379CF10932B02009335
:101AD0002A020E942503DC0112960D911C9101152A
:101AE000110509F451C1D801ED91FC910480F581F3
:101AF000E02DBE016B5E7F4FC8010995009709F08C
:101B00003EC1F80100851185EACFF3E0FF120EC057
:101B10008F89882309F440C0823061F440E862E193
:101B200083E993E00E948102811148CF81E2809392
:101B3000EB0047CF813029F440E868E08AE893E081
:101B4000F1CF833099F70E942503DC011296ED90C6
:101B5000FC908E010F5F1F4F6801E114F10479F0D2
:101B6000D701ED91FC910680F781E02DB801C70106
:101B70000995080F111DF701E084F184EECFD8011B
:101B80001C92F60101900020E9F73197BF016C1912
:101B90007D0940E0C601C6CF64E773E0FB014491D4
:101BA00050E080E80E94B40209CF973009F4BECF1C
:101BB000983021F481E08093F10000CF993009F052
:101BC000FDCE837009F0B2CFE1E0F1E081E031E0D9
:101BD00096E32191222371F08093E9003093EB008A
:101BE000DF0111972C912093EC009093ED008F5F13
:101BF000873079F78EE78093EA001092EA008F89A8
:101C000080933A02DBCE8B8D9C8D1092E90010926E
:101C10002D0210922C0290932B0280932A02898D20
:101C2000811192C08E899D89913A49F4813209F0DF
:101C30007DCF47E050E06BE071E080E0B3CF9132C0
:101C400009F074CF833269F48F89988DB0E0A0E0F9
:101C50008093070190930801A0930901B0930A01B2
:101C6000ADCE803269F48091E80082FFFCCF67E05E
:101C70008BE091E00E94EB028BEF8093E8009ECE18
:101C8000823209F09BCE8F8980931201EEEFFFE73D
:101C9000859194918B3F9C4D51F1E0E0F8E080916B
:101CA0000B0190910C01A0910D01B0910E01803BB0
:101CB0009440A105B105F1F48091120180FD1AC094
:101CC000EE3F8AE0F80789F587E797E791838083FD
:101CD0008091600080932E0288E19BE00FB6F8941B
:101CE000A895809360000FBE9093600067CEEEEFE2
:101CF000FAE0D5CF808191818737974709F05ECE92
:101D0000A8958091600088618093600080912E0288
:101D100080936000EE3F2AE0F20789F08091FE0A8E
:101D20009091FF0A9183808349CE8081918187378A
:101D3000980751F29093FF0A8093FE0AC5CF109244
:101D4000FF0A1092FE0A3ACE0E942503DC01129689
:101D50000D911C910115110509F4E8CED801ED9102
:101D6000FC910190F081E02DBE016B5E7F4FC801B8
:101D70000995811123CEF80100851185EBCF181646
:101D800019060CF41BCED2CEF1E0FF12BECE68E7EE
:101D900073E004CF1F920F920FB60F9211242F936E
:101DA0003F938F939F93AF93BF938091160290912F
:101DB0001702A0911802B09119023091150223E088
:101DC000230F2D3758F50196A11DB11D2093150243
:101DD0008093160290931702A0931802B0931902F1
:101DE00080911A0290911B02A0911C02B0911D02D9
:101DF0000196A11DB11D80931A0290931B02A0931E
:101E00001C02B0931D02BF91AF919F918F913F91A2
:101E10002F910F900FBE0F901F90189526E8230F5B
:101E20000296A11DB11DD2CF10923E0210923D022A
:101E300088EE93E0A0E0B0E080933F0290934002F0
:101E4000A0934102B093420289E291E090933C0258
:101E500080933B028FEF9FEF90934802809347025D
:101E600010929C0210929B028BE391E090939A0255
:101E70008093990280919102811113C010928C027B
:101E800010928B0286EA93E090938E0280938D02EB
:101E90008BE390E09093900280938F0281E0809397
:101EA00091020E941A08FC01A385B485109709F0DD
:101EB00083C08BE892E094878387858596852091FF
:101EC0008F0230919002820F931F968785878DE451
:101ED00091E09093B4028093B3028091AB028111A0
:101EE00013C01092A6021092A50281EE93E0909387
:101EF000A8028093A70289E190E09093AA028093C0
:101F0000A90281E08093AB020E941A08FC01A3851C
:101F1000B485109709F05BC085EA92E094878387C7
:101F2000858596852091A9023091AA02820F931F80
:101F30009687858763E070E081E793E00E945C0A02
:101F400062E070E087E393E00E945C0A65E070E085
:101F50008DEF92E00E945C0A64E070E083EC92E016
:101F60000E945C0A1092BE021092BD021092C00242
:101F70001092BF021092C2021092C10287E090E05C
:101F80000E94C20A2091BD023091BE02811129C077
:101F90002115310519F0C9010E941E161092BE02CA
:101FA0001092BD021092C2021092C1021092C002A1
:101FB0001092BF020895DC018D919C9111970097BA
:101FC000D1F78BE892E08D939C9377CFDC018D91D4
:101FD0009C9111970097D1F785EA92E08D939C939D
:101FE0009FCF87E090E09093C2028093C10262E5A8
:101FF00071E0C9010C947617789484B5826084BD31
:1020000084B5816084BD85B5826085BD85B58160FC
:1020100085BD80916E00816080936E00109281007A
:102020008091810082608093810080918100816035
:1020300080938100809180008160809380008091F6
:1020400091008260809391008091910081608093E3
:102050009100809190008160809390008091C100F8
:1020600084608093C1008091C10082608093C10030
:102070008091C10081608093C1008091C300816024
:102080008093C3008091C00082608093C0008091E3
:10209000C20081608093C20080917A008460809346
:1020A0007A0080917A00826080937A0080917A0031
:1020B000816080937A0080917A00806880937A00B2
:1020C00010923A0210923102109230028091D700A1
:1020D00081608093D70080EA8093D80089B58061C1
:1020E00089BD89B5826089BD09B400FEFDCF61E07C
:1020F00070E080E090E00E94F0048091D8008F7C36
:1021000080618093D8008091E000807F8093E00020
:102110008091E1008E7E8093E1008DE08093E2006B
:10212000559A209A8FEF9FEF909348028093470231
:1021300088E09CE090937C0380937B038DEA9BE096
:1021400090938203809381038091A9039091AA03C5
:102150008230910514F482E090E09093AA0380937A
:10216000A90361E083E00E94610485EA9BE090930B
:102170004203809341038AE49BE090934803809359
:10218000470380916F03909170038230910514F49E
:1021900082E090E09093700380936F0361E082E0AF
:1021A0000E94610482E49BE09093080380930703FC
:1021B0008EE39BE090930E0380930D038091350393
:1021C000909136038230910514F482E090E0909370
:1021D00036038093350361E085E00E94610486E365
:1021E0009BE09093CE028093CD0288E29BE0909397
:1021F000D4028093D3028091FB029091FC02823042
:10220000910514F482E090E09093FC028093FB022D
:1022100061E084E00E94610462E086E00E948F0435
:1022200061E086E00E94610462E087E00E948F0422
:1022300061E087E00E94610462E088E00E948F0410
:1022400061E088E00E94610462E089E00E948F04FE
:1022500061E089E00E94610460E082E10E948F04F5
:1022600060E08FE00E948F0462E083E10E948F04AF
:1022700061E084E10E948F0461E084E10E946104D6
:1022800061E085E10E948F0460E085E10E946104C5
:1022900082E10E94380421E0892B09F420E0209398
:1022A0003302E5EBF2E088E0DF011D928A95E9F761
:1022B00048E050E0BF0183EB92E00E949F0889E96B
:1022C00092E00E94E80889E992E00E948C0800E010
:1022D00010E0D1E081E793E00E94DE0587E393E020
:1022E0000E94DE058DEF92E00E94DE0583EC92E015
:1022F0000E94DE0582E591E00E94100C882309F41B
:10230000E6C086E00E943804892B71F583EE0E94B6
:10231000520962E789E992E00E942D0A0E94F708BB
:1023200068EC70E080E090E00E94F00482EB91E0C5
:102330000E94BD0A88E20E9452090E94F70868EED6
:1023400073E080E090E00E94F0048AEB91E00E944C
:10235000BD0A88E20E9452090E94F7086CE271E00F
:1023600080E090E00E94F00487E00E943804892B0E
:10237000F9F483EE0E94520962E789E992E00E9433
:102380002D0A0E94F70868EC70E080E090E00E945F
:10239000F0048EED91E00E94BD0A88E20E9452098D
:1023A0000E94F7086CE271E080E090E00E94F00487
:1023B00088E00E943804892BF9F483EE0E945209C8
:1023C00062E789E992E00E942D0A0E94F70868EC12
:1023D00070E080E090E00E94F00483EE91E00E94C3
:1023E000BD0A88E20E9452090E94F70860ED77E07A
:1023F00080E090E00E94F00489E00E943804892B7C
:10240000F9F483EE0E94520962E789E992E00E94A2
:102410002D0A0E94F70868EC70E080E090E00E94CE
:10242000F0048BEE91E00E94BD0A88E20E945209FE
:102430000E94F70860E573EC80E090E00E94F004F1
:102440000E94D205C0903502D0903602E09037024B
:10245000F09038026C197D098E099F09693E73401E
:1024600081059105A0F182E10E943804C1E0892B29
:1024700009F4C0E0C093340280913302C81769F0B8
:102480008FE00E943804C817190609F4D4C28AEEF6
:1024900090E00E94B008C093330283E10E943804A8
:1024A000892B09F0CBC280913202882371F082EE31
:1024B00090E00E94B0080E94D205609335027093AC
:1024C000360280933702909338021092320284E9E8
:1024D00091E00E94100C882309F4C5C086E00E9498
:1024E0003804892BE1F48FE30E94520964E670E01E
:1024F00080E090E00E94F0040E94F70868EE73E02C
:1025000080E090E00E94F00482E50E94520964E6B7
:1025100070E080E090E00E94F0040E94F70887E0FD
:102520000E943804892B89F482E40E94520964E6EF
:1025300070E080E090E00E94F0040E94F70868EEEE
:1025400073E080E090E00E94F00488E00E9438048C
:10255000892B89F48CE30E94520964E670E080E0E4
:1025600090E00E94F0040E94F70868EE73E080E0BB
:1025700090E00E94F00489E00E943804892B89F4DD
:102580008EE30E94520964E670E080E090E00E94D1
:10259000F0040E94F70868EE73E080E090E00E948B
:1025A000F0040E94D205C0903502D0903602E0902F
:1025B0003702F09038026C197D098E099F09693E37
:1025C00073408105910508F44EC082E10E943804F1
:1025D000C1E0892B09F4C0E0C0933402809133023A
:1025E000C817D9F08FE00E943804C817190609F4FB
:1025F00028C280EE0E9452096FE289E992E00E94AF
:102600002D0A6AE070E080E090E00E94F0040E94F1
:10261000F708809134028093330283E10E943804EA
:10262000892B09F013C2809132028823D1F080EE09
:102630000E94520963E789E992E00E942D0A64E64C
:1026400070E080E090E00E94F0040E94F7080E9491
:10265000D2056093350270933602809337029093CF
:1026600038021092320288E691E00E94100C882312
:1026700009F4F9C086E00E943804892BB1F48AE39A
:102680000E94520964E670E080E090E00E94F0044D
:102690000E94F7088BE30E94520964E670E080E034
:1026A00090E00E94F0040E94F70887E00E9438043E
:1026B000892B59F48DE30E94520964E670E080E0B2
:1026C00090E00E94F0040E94F70888E00E9438041D
:1026D000892B51F58DE30E94520964E670E080E099
:1026E00090E00E94F0040E94F70887EF91E00E94BA
:1026F000BD0A88E20E94520964E670E080E090E042
:102700000E94F0040E94F70882EE0E94520961E4E0
:1027100089E992E00E942D0A0E94F70864E670E0C1
:1027200080E090E00E94F00489E00E943804892B48
:1027300009F041C082EE0E94520964E670E080E038
:1027400090E00E94F00462E789E992E00E942D0A7D
:1027500062E789E992E00E94150A64E670E080E091
:1027600090E00E94F00466E789E992E00E942D0A59
:1027700066E789E992E00E94150A64E670E080E06D
:1027800090E00E94F00466E789E992E00E942D0A39
:1027900066E789E992E00E94150A64E670E080E04D
:1027A00090E00E94F0040E94F70864E670E080E088
:1027B00090E00E94F0040E94D205C0903502D090B3
:1027C0003602E0903702F09038026C197D098E09CC
:1027D0009F09693E73408105910508F444C082E178
:1027E0000E943804C1E0892B09F4C0E0C093340290
:1027F00080913302C817A1F08FE00E943804C817F7
:10280000190609F426C180E50E9452096AE070E0C9
:1028100080E090E00E94F0040E94F708C093330229
:1028200083E10E943804892B09F015C1809132029E
:102830008823B9F060E289E992E00E942D0A64E6FB
:1028400070E080E090E00E94F0040E94F7080E948F
:10285000D2056093350270933602809337029093CD
:102860003802109232028AE591E00E94100C88230F
:1028700009F4DAC086E00E943804892BB1F482EEB4
:102880000E94520981EE0E94520980EE0E94520974
:1028900061E389E992E00E942D0A64E670E080E03D
:1028A00090E00E94F0040E94F70887E00E9438043C
:1028B000892BB1F482EE0E94520981EE0E945209E6
:1028C00080EE0E94520962E389E992E00E942D0A9B
:1028D00064E670E080E090E00E94F0040E94F70857
:1028E00088E00E943804892BB1F482EE0E945209DC
:1028F00081EE0E94520980EE0E94520963E389E949
:1029000092E00E942D0A64E670E080E090E00E9470
:10291000F0040E94F70889E00E943804892BB1F482
:1029200082EE0E94520981EE0E94520980EE0E94BE
:10293000520964E389E992E00E942D0A64E670E09E
:1029400080E090E00E94F0040E94F7080E94D20507
:10295000C0903502D0903602E0903702F0903802F5
:102960006C197D098E099F09693E734081059105A7
:1029700008F45AC082E10E943804C1E0892B09F4AE
:10298000C0E0C093340280913302C81709F18FE090
:102990000E943804C817190609F460C082EE0E942C
:1029A000520981EE0E94520980EE0E94520965E3AD
:1029B00089E992E00E942D0A6AE070E080E090E0F0
:1029C0000E94F0040E94F708809134028093330241
:1029D00083E10E943804892B09F04BC080913202B8
:1029E000882301F182EE0E94520981EE0E94520971
:1029F00080EE0E94520967E389E992E00E942D0A65
:102A00006AE070E080E090E00E94F0040E94F70825
:102A10000E94D2056093350270933602809337028C
:102A200090933802109232020115110509F452CC2C
:102A30000E9400004FCC89EE90E02BCDD093320263
:102A400046CD80EE0E9452096DE5D7CDD09332027B
:102A50000ACE8FE4D9CED093320205CF82EE0E9407
:102A6000520981EE0E94520980EE0E94520966E3EB
:102A70009FCFD0933202D8CF8091BD029091BE02F9
:102A8000009711F00C941E1608952F923F924F92CA
:102A90005F926F927F928F929F92AF92BF92CF92EE
:102AA000DF92EF92FF920F931F93CF93DF93CDB7F7
:102AB000DEB7CA1BDB0B0FB6F894DEBF0FBECDBF6F
:102AC00009942A88398848885F846E847D848C8440
:102AD0009B84AA84B984C884DF80EE80FD800C8149
:102AE0001B81AA81B981CE0FD11D0FB6F894DEBF2C
:102AF0000FBECDBFED010895EE0FFF1F0590F491BD
:102B0000E02D09940F931F93CF93DF9382309105AB
:102B100010F482E090E0E091AD03F091AE0330E07C
:102B200020E0B0E0A0E0309799F42115310509F4D8
:102B30004AC0281B390B24303105D8F58A819B8186
:102B40006115710589F1FB0193838283FE0111C038
:102B5000408151810281138148175907E0F04817DD
:102B6000590799F4109761F012960C9312971396E7
:102B70001C933296CF01DF91CF911F910F91089551
:102B80000093AD031093AE03F4CF2115310551F03E
:102B90004217530738F0A901DB019A01BD01DF019B
:102BA000F801C1CFEF01F9CF9093AE038093AD034D
:102BB000CDCFFE01E20FF31F819391932250310993
:102BC00039832883D7CF2091AB033091AC03232BDB
:102BD00041F420911501309116013093AC032093FC
:102BE000AB0320911301309114012115310541F4FB
:102BF0002DB73EB74091170150911801241B350B9A
:102C0000E091AB03F091AC03E217F307A0F42E1BA5
:102C10003F0B2817390778F0AC014E5F5F4F241740
:102C2000350748F04E0F5F1F5093AC034093AB0342
:102C3000819391939FCFF0E0E0E09CCFCF93DF931F
:102C40000097E9F0FC01329713821282A091AD0344
:102C5000B091AE03ED0130E020E01097A1F42081A7
:102C60003181820F931F2091AB033091AC03281761
:102C7000390709F061C0F093AC03E093AB03DF9137
:102C8000CF910895EA01CE17DF07E8F54A815B810D
:102C90009E0141155105B1F7E901FB83EA83499192
:102CA0005991C40FD51FEC17FD0761F48081918104
:102CB0000296840F951FE90199838883828193810D
:102CC0009B838A83F0E0E0E012968D919C911397AC
:102CD0000097B9F52D913C911197CD010296820F85
:102CE000931F2091AB033091AC032817390739F6B5
:102CF000309751F51092AE031092AD03B093AC0330
:102D0000A093AB03BCCFD383C28340815181840F96
:102D1000951FC817D90761F44E5F5F4F888199816D
:102D2000480F591F518340838A819B8193838283FB
:102D30002115310509F0B0CFF093AE03E093AD0358
:102D40009ECFFD01DC01C0CF13821282D7CFB0E04D
:102D5000A0E0EDEAF6E10C9447158C01009751F4E0
:102D6000CB010E9482158C01C801CDB7DEB7E0E12E
:102D70000C946315FC01E60FF71F9C0122503109EA
:102D8000E217F30708F49DC0D901CD91DC911197AA
:102D9000C617D70798F0C530D10530F3CE01049798
:102DA0008617970708F3C61BD70B2297C193D193B9
:102DB0006D937C93CF010E941E16D6CF5B01AC1A97
:102DC000BD0A4C018C0E9D1EA091AD03B091AE03C7
:102DD000512C412CF12CE12C109731F58091AB0353
:102DE0009091AC038815990509F05CC0461657060A
:102DF00008F058C08091130190911401009741F49C
:102E00008DB79EB74091170150911801841B950B07
:102E1000E817F90708F055C0F093AC03E093AB0353
:102E2000F90171836083A0CF8D919C9111971296C7
:102E30006C90129713967C901397A815B90559F5C5
:102E40006C0142E0C40ED11CCA14DB0420F1AC01B9
:102E50004A195B09DA011296159780F06282738233
:102E600051834083D9016D937C93E114F10471F097
:102E7000D7011396FC93EE93129776CF22968C0F80
:102E80009D1FF90191838083F301EFCFF093AE038F
:102E9000E093AD0369CF4816590608F42C017D0173
:102EA000D3019ACFCB010E9482157C01009749F093
:102EB000AE01B8010E946417C8010E941E16870166
:102EC00053CF10E000E050CFFB01DC0102C00190C5
:102ED0000D9241505040D8F70895FB01DC018D91CF
:102EE000019080190110D9F3990B0895FB01DC01C1
:102EF00001900D920020E1F7089511E0CEEFD1E0AE
:102F000004C0FE010E947C152196CF3FD107C9F76E
:042F1000F894FFCF63
:102F140000C18081000000FFFFFFFF00E10000000E
:102F24000000000000AF038000000000002107CF74
:102F34000794077907000000006A03BC058B03802F
:102F440003D2039003AE0300000000450AF8029C7C
:102F5400089B08E8088C080809000000009F080D79
:102F64000A0077696E646F7773006F627300636D34
:102F74006400636400636420436F6D7075746163FF
:102F8400696F6E20506C757300436F6D707574615A
:102F940063696F6E2E65786500300061646D696EDB
:102FA40000636420534754616C6C65722033005392
:102FB4006572766963652E6578650076656E746101
:102FC40073006E6F74657061640041726368697642
:102FD4006F204162696572746F2064657364652053
:102FE4004D6163726F4B6579426F61726400636116
:102FF4006C63006D737061696E7400657863656CF1
:0C300400202F736166650033303200003D
:00000001FF
