:020000040000FA
:100000000C94FF010C9427020C9427020C942702F5
:100010000C9427020C9427020C9427020C942702BC
:100020000C9427020C9427020C944E0C0C94BD0CDB
:100030000C9427020C9427020C9427020C9427029C
:100040000C9427020C9427020C9427020C9427028C
:100050000C9427020C9427020C9427020C94EF0EA8
:100060000C9427020C9427020C9427020C9427026C
:100070000C9427020C9427020C9427020C9427025C
:100080000C9427020C9427020C9427020C9427024C
:100090000C9427020C9427020C9427020C9427023C
:1000A0000C9427020C9427020C94270200000000F5
:1000B0000000000000000000000000002A002B00EB
:1000C0002800000000000000000000000000000008
:1000D0000000000000000000000000000000000020
:1000E0000000000000000000000000002C001E02C4
:1000F00034022002210222022402340026022702B6
:1001000025022E0236002D003700380027001E0081
:100110001F002000210022002300240025002600CB
:100120003302330036022E00370238021F02040267
:10013000050206020702080209020A020B020C026B
:100140000D020E020F02100211021202130214021B
:10015000150216021702180219021A021B021C02CB
:100160001D022F003100300023022D023500040053
:10017000050006000700080009000A000B000C003B
:100180000D000E000F0010001100120013001400EB
:10019000150016001700180019001A001B001C009B
:1001A0001D002F0231023002350200000000000065
:1001B000000000000000000000000000000000003F
:1001C000000000000000000000000000000000002F
:1001D000000000000000000000000000000000001F
:1001E000000000000000000000000000000000000F
:1001F00000000000000000000000000000000000FF
:1002000000000000000000000000000000000000EE
:1002100000000000000000000000000000000000DE
:1002200000000000000000000000000000000000CE
:1002300000000000000000000000000000000000BE
:1002400000000000000000000000000000000000AE
:10025000000000000000000000000000000000009E
:10026000000000000000000000000000000000008E
:10027000000000000000000000000000000000007E
:10028000000000000000000000000000000000006E
:10029000000000000000000000000000000000005E
:1002A000000000000000000000000000000000004E
:1002B000240027002A002D00300000000000250047
:1002C00028002B002E003100000000002300260033
:1002D00029002C002F000404040404030405020276
:1002E00002020403020202020606060606060404CF
:1002F0000202020404040802011040804010204061
:10030000804080080204018040201002011080100B
:10031000204040200000000200090F0000030401FB
:10032000000C0000000000000000000000000000C1
:100330000000080B00020202000009040000010294
:10034000020000052400100105240101010424021B
:100350000605240600010705810310004009040179
:1003600000020A00000007050202400000070583A2
:10037000024000000403090412010002EF020140E0
:100380004F1B0692000101020301537061726B461C
:10039000756E00537061726B46756E2050726F20DF
:1003A0004D6963726F0005010906A1018502050709
:1003B00019E029E715002501750195088102050C52
:1003C00095017508150026FF00190029FF81000519
:1003D0000795067508150026E700190029E7810032
:1003E000C0050C0901A1018504150026FF031900B1
:1003F0002AFF03950475108100C0390F651511247B
:100400001FBECFEFDAE0DEBFCDBF23E0ACEFB1E03F
:1004100001C01D92AF3AB207E1F711E0A0E0B1E0F0
:10042000E6E6FFE202C005900D92AC3FB107D9F7B6
:1004300011E0CEEFD1E004C02197FE010E94A51586
:10044000CD3FD107C9F70E9421100C94A6170C9438
:100450000000FC0180913A02882311F13FB7F89423
:1004600082E08093E9002091F200822F90E018163C
:10047000190614F481E090E0882339F0289844E6C6
:10048000409339024091F1004083222339F02091BA
:10049000F200211103C02BE62093E8003FBF08952E
:1004A0008FEF9FEF089540912C0250912D022091E3
:1004B0002A0230912B0242175307B4F49091E800BE
:1004C0009570E1F39091E80092FD19C08093F100DE
:1004D00080912C0290912D0201968F739927892B80
:1004E00019F48EEF8093E80080912C0290912D02F8
:1004F000019690932D0280932C0281E0089580E074
:100500000895EF92FF920F931F93CF93DF93F82EEE
:10051000192FE62E042F81E0860F880F0E945302C8
:1005200083E00E945302CF2DD12FEC0EFD2EF11C43
:10053000CE15DF05B9F007FF13C0FE0184910E94BC
:100540005302182F80E00E945302812321968111CB
:10055000EFCFDF91CF911F910F91FF90EF90089512
:100560008881EDCF81E0F5CFDF92EF92FF920F937C
:100570001F93CF93DF93D82E8A01EB017B01E40E0A
:10058000F51ECE15DF0559F0D7FE12C0FE0184918D
:100590000E94530221968111F4CF0FEF1FEFC80183
:1005A000DF91CF911F910F91FF90EF90DF90089511
:1005B0008881EECF2FB7F89487708093E9009091EF
:1005C000E800892F807295FF04C09091F20080E4CA
:1005D000891B2FBF0895615030F02091F100FC017C
:1005E00020830196F8CF289884E6809339020895F5
:1005F000AF92BF92CF92DF92EF92FF920F931F9331
:10060000CF93DF936C017B018B01040F151FEB016E
:100610005E01AE18BF08C017D10759F06991D60125
:10062000ED91FC910190F081E02DC6010995892B97
:1006300079F7C501DF91CF911F910F91FF90EF9056
:10064000DF90CF90BF90AF900895809122028111EA
:100650000DC082E080931E0284E080931F021092FE
:1006600021021092200281E0809322028EE192E02A
:1006700008950F931F93CF93DF931F92CDB7DEB7EB
:1006800082E0898342E450E062E373E080E80E9404
:10069000B4020E942503DC0112960D911C910115F4
:1006A000110589F0D801ED91FC910280F381E02DD4
:1006B000BE016F5F7F4FC801099597FD04C0F80127
:1006C00000851185ECCF89810F90DF91CF911F912B
:1006D0000F910895CF93DF931F92CDB7DEB7698353
:1006E000DC01ED91FC910280F381E02D41E050E0CE
:1006F000BE016F5F7F4F09950F90DF91CF910895F5
:1007000083E08093E9008091F200882319F08AE366
:100710008093E800089583E00E94DA0290E0089553
:10072000CF93DF931F92CDB7DEB7FC01848595850B
:1007300097FD08C02FEF3FEF358724870F90DF919B
:10074000CF910895CE0101960E942902019719F4D4
:10075000898190E0F3CF8FEF9FEFF0CF0F931F933E
:10076000CF93DF931F92CDB7DEB78C01FC01848558
:10077000958597FF0BC0CE0101960E942902019733
:1007800071F4898190E0F80195878487F801848568
:1007900095850F90DF91CF911F910F9108958FEF65
:1007A0009FEFF1CFFC018485958597FD0BC09FB726
:1007B000F89482E08093E9008091F2009FBF90E07E
:1007C000019608959FB7F89482E08093E9008091A4
:1007D000F2009FBF90E0089581508F3008F047C02D
:1007E000E82FF0E0EA50FC4F0C94A5151304170411
:1007F00005040B040F043704370437041A042004DB
:10080000240428042E0437043204809180008F775A
:10081000809380000895809180008F7DF9CF809132
:100820008000877FF5CF84B58F7784BD089584B528
:100830008F7DFBCF809190008F77809390000895FB
:10084000809190008F7DF9CF80919000877FF5CFC8
:100850008091C0008F778093C00008958091C00080
:100860008F7DF9CF8091C200877F8093C200089569
:10087000CF93DF93282F30E0F901EC5EFC4F849199
:10088000F901EB50FD4FD491F901EA52FD4FC491AB
:10089000CC23A1F081110E94EC03EC2FF0E0EE0FCD
:1008A000FF1FE853FD4FA591B491EC91ED2381E03A
:1008B00090E009F480E0DF91CF91089580E090E02E
:1008C000FACF1F93CF93DF93282F30E0F901EC5E2E
:1008D000FC4F8491F901EB50FD4FD491F901EA529C
:1008E000FD4FC491CC23A9F0162F81110E94EC0377
:1008F000EC2FF0E0EE0FFF1FE654FD4FA591B491F1
:100900008FB7F894EC91111108C0D095DE23DC93D9
:100910008FBFDF91CF911F910895DE2BF8CFCF933A
:10092000DF9390E0FC01EB50FD4F24918A529D4FE4
:10093000FC0184918823C9F090E0880F991FFC0185
:10094000E455FD4FA591B491FC01E654FD4FC591CE
:10095000D49161110DC09FB7F8948C91209582239A
:100960008C938881282328839FBFDF91CF9108959E
:10097000623051F49FB7F8943C91822F8095832385
:100980008C93E8812E2BEFCF8FB7F894EC912E2B20
:100990002C938FBFEACF3FB7F89480911A029091C1
:1009A0001B02A0911C02B0911D0226B5A89B05C098
:1009B0002F3F19F00196A11DB11D3FBFBA2FA92FDE
:1009C000982F8827BC01CD01620F711D811D911DDB
:1009D00042E0660F771F881F991F4A95D1F7089547
:1009E0008F929F92AF92BF92CF92DF92EF92FF923F
:1009F0004B015C010E94CB046B017C010E94CB0483
:100A00006C197D098E099F09683E73408105910527
:100A1000A8F321E0821A9108A108B10888EEC80E57
:100A200083E0D81EE11CF11C81149104A104B104DF
:100A300029F7FF90EF90DF90CF90BF90AF909F90FD
:100A40008F9008957F928F929F92AF92BF92CF9294
:100A5000DF92EF92FF920F931F93CF93DF93C82EF5
:100A60008B017A0180913A02811110C08FEF9FEFC4
:100A7000DF91CF911F910F91FF90EF90DF90CF907A
:100A8000BF90AF909F908F907F900895809130029B
:100A900080FF05C08091E00082608093E000CE2D51
:100AA000DF2DD12C8AEFB82E8C2D8770982E8C2DAF
:100AB0008072882E8C2D8074782E9AE3A92E209730
:100AC00019F4DD2009F452C08C2D0E94DA02811144
:100AD0000AC0BA94BB2051F261E070E080E090E07F
:100AE0000E94F004ECCF8C171D0611F00CF08C2F37
:100AF0009FB7F8949092E9002091E80025FD02C08C
:100B00009FBFDDCF282F30E0C21BD30B882029F0F8
:100B10008150A0F01092F100FBCFF801C7FC0AC091
:100B2000815050F041914093F100FACF44914093AD
:100B3000F10031968150D0F7020F131FDD2021F014
:100B4000A092E800D12CDCCF8091E80085FD07C0A1
:100B5000A092E800DD24D394209791F2F3CF209760
:100B600079F6772069F2A092E800CACF5D9884E612
:100B700080932F02C7017CCFCF93DF93EC0180914C
:100B80001201882331F083E00E942205181619060D
:100B900034F081E090E09B838A8380E090E0DF91F5
:100BA000CF9108952FB7F8946091160270911702B3
:100BB00080911802909119022FBF08958F929F92F1
:100BC000AF92BF92EF92FF920F931F93CF93DF9359
:100BD000FC012081318137FD49C0EC01822F0E9448
:100BE00038047C01088519850E94D2054B015C01FF
:100BF0008AA99BA9ACA9BDA9B501A401481B590BA1
:100C00006A0B7B0B8EA59FA58230910509F475C0F8
:100C100054F40097E1F08130910599F199AB88ABDC
:100C20001FA61EA623C08630910509F4CAC08730CE
:100C3000910509F4E5C08330910581F7E016F106CE
:100C400009F07AC099AB88AB81E090E031C0E01642
:100C5000F10661F419AA18AA81E090E09FA78EA777
:100C60008AAA9BAAACAABDAA1FAA1EAADF91CF91ED
:100C70001F910F91FF90EF90BF90AF909F908F903A
:100C80000895E016F106D9F00A811B8130E020E0DA
:100C9000401751076207730738F428A939A999AB9F
:100CA00088AB3FA72EA7E2CF99AB88AB82E090E05C
:100CB0009FA78EA78AAA9BAAACAABDAAD7CF8E81CE
:100CC0009F81B0E0A0E084179507A607B70770F6EC
:100CD000EC8DFD8D309709F00995EE8DFF8D3097E5
:100CE00019F088A199A109958EA59FA599AB88AB0C
:100CF00086E090E09FA78EA7B9CF8A809B80B12C19
:100D0000A12CE016F10689F4481559056A057B0502
:100D100020F28EA99FA901969FAB8EAB82E090E056
:100D200099AB88AB83E090E0E5CF481559056A059B
:100D30007B0508F49BCFEDCF8EA99FA90C811D8167
:100D400030E020E0041715072607370730F028ADFC
:100D500039AD2817390709F089CF81309105B9F4E9
:100D6000EA85FB85309709F00995EC85FD8530977C
:100D700019F08E859F8509951FA61EA619AA18AA87
:100D80001FAA1EAA1AAA1BAA1CAA1DAA6FCF0297E5
:100D900061F4E889F989309709F00995EA89FB89B6
:100DA000309751F38C899D89E6CFEE89FF89309782
:100DB00009F00995E88DF98D3097F1F28A8D9B8DB8
:100DC000DACFE016F10629F099AB88AB87E090E026
:100DD0006FCFE8A5F9A5309709F00995EAA5FBA51D
:100DE000309709F443CF8CA59DA5DF91CF911F913A
:100DF0000F91FF90EF90BF90AF909F908F900994CC
:100E00008A809B80B12CA12CE016F10699F448153C
:100E100059056A057B0508F440CFEAA1FBA130978C
:100E200009F00995ECA1FDA1309709F4A5CF8EA199
:100E30009FA1A1CF481559056A057B0508F416CF77
:100E4000ECCFDC01FB0112962C91129784819581E5
:100E50002817190641F491818081813A31F49D7FF0
:100E600081E0913009F080E008958132E1F79B3014
:100E700029F482811F968C9381E008959A3099F726
:100E8000828150968C93F8CFAF92BF92CF92DF922F
:100E9000EF92FF920F931F93CF93DF931F92CDB7E3
:100EA000DEB77C0169836A01590141E050E0BE016F
:100EB0006F5F7F4FFC0183810E9422058C0197FDAB
:100EC0000BC0F7018381A501B60180640E94220551
:100ED000080F191F97FD8C01C8010F90DF91CF916A
:100EE0001F910F91FF90EF90DF90CF90BF90AF9048
:100EF0000895DC01FB0188E4808389E4818384E434
:100F000082831D969C911D979F709F5B93831D9676
:100F10008D919C9124E0969587952A95E1F78F70A5
:100F20008F5B848385E00895EF92FF920F931F9368
:100F3000CF93DF93FB012081213871F52381223289
:100F400059F5DC0112964C91248135814217130624
:100F500019F5EC010B851C85F12CE12C011511050F
:100F600089F0F801448155816281738180E80E9493
:100F7000B4028F3F980749F0E80EF91ED8010D9191
:100F80001C91ECCF81E08F87C701DF91CF911F913A
:100F90000F91FF90EF90089590E080E0F6CFCF930F
:100FA000DF93CDB7DEB769970FB6F894DEBF0FBEFB
:100FB000CDBFFC01DB018C918F5F8C939E012D5F77
:100FC0003F4F8DE0D9011D928A95E9F729E02983E9
:100FD00084E08A8391E09D8383E08E832A8721E2E7
:100FE0002B879C879D879F8722E2288B27E02B8B6E
:100FF00025E02C8B8E8B20E430E0388F2F8B998F5F
:1010000082818B8395858685998B8A8B8381806885
:101010008D8B49E150E0BE016F5F7F4F80E00E9401
:10102000B40269960FB6F894DEBF0FBECDBFDF9154
:10103000CF910895CF93DF9380910D02811167C006
:1010400081E0809300028093010226E032E0309339
:1010500003022093020210920502109204022DE175
:1010600031E03093FD012093FC01109208021092B0
:10107000070210920A021092090280930B028093D9
:101080000C0281EC809306020E942503FC01818101
:1010900090910002482F490F5527551F48305105A0
:1010A0009CF5A281B381109709F52CEF31E03383D1
:1010B000228320812093FE018093FF018091010211
:1010C000820F808320910202A22FB09103028A2F07
:1010D000821B8917C8F481813D91C82FD0E0C05090
:1010E000DF4F38838F5F8183F2CFD90118962D911E
:1010F0003C91199721153105C1F72CEF31E0199674
:101100003C932E931897D5CF81E080930D028CEFFE
:1011100091E0DF91CF910895CF93DF93EC010E948E
:101120001A08AE014C5F5F4F28E030E062E0DF91CB
:10113000CF910C944407089590E080E008950F93B8
:101140001F93CF93DF93EB018A010E941A08980145
:10115000AE0164E0DF91CF911F910F910C94440791
:10116000CF93DF93EC01E5EBF2E090E080E021919A
:1011700031910196232B41F5880F991FFC01ED5405
:10118000FD4FD183C08348E050E065EB72E083EB14
:1011900092E00E949F08E3EBF2E08BEB92E0228169
:1011A0003381C217D30711F41382128232968E173D
:1011B0009F07A9F748E050E065EB72E083EB92E00F
:1011C000DF91CF910C949F088430910581F6DBCF9D
:1011D000CF93DF93C3E0D0E060E081E10E9461043F
:1011E0006AEA70E080E090E00E94F00461E081E152
:1011F0000E9461046AEA70E080E090E00E94F004DE
:10120000219751F7DF91CF910895FC019C01285F50
:101210003F4F90E080E04481411101961482319665
:10122000E217F307C1F70895CF93DF9389E992E0BE
:101230000E940509EC01892B21F089E992E00E94C6
:101240008C08CE01DF91CF910895CF93DF93DC011D
:1012500090E2960F9830B0F414968C91149721E098
:1012600030E001C0220F9A95EAF7442341F0282B81
:1012700014962C9381E090E0DF91CF910895209512
:101280002823F6CFFD0136964423D1F0CD010C96EC
:10129000EF012991621771F3C817D907D1F790E0D0
:1012A00080E02191211105C0A80FB91F16966C93FB
:1012B000E1CF019686309105A1F790E080E0DCCF88
:1012C00090E080E02191621305C0A80FB91F169627
:1012D0001C92D0CF019686309105A1F7EECFCF9327
:1012E000DF9341E0682F89E992E00E942509EC0133
:1012F000892B21F089E992E00E948C08CE01DF91D0
:10130000CF910895CF93DF9388E20E946F09EC019B
:10131000892B61F040E068E289E992E00E942509AA
:10132000892B21F089E992E00E948C08CE01DF919F
:10133000CF910895CF92DF92FF920F931F93CF9397
:10134000DF938C01F42EE62FF0E0EE0FFF1FE45543
:10135000FF4FC590D490D801ED91FC910484F585A0
:10136000E02D6C2DC8010995EC01892B11F4F110C9
:1013700070C0D0FE0CC0D801ED91FC910484F585BD
:10138000E02D4F2D60EEC8010995C82BD92BD1FE59
:101390000CC0D801ED91FC910484F585E02D4F2D12
:1013A00061EEC8010995C82BD92BD2FE0CC0D8011B
:1013B000ED91FC910484F585E02D4F2D62EEC8017E
:1013C0000995C82BD92BD3FE0CC0D801ED91FC9107
:1013D0000484F585E02D4F2D63EEC8010995C82BD7
:1013E000D92BD4FE0CC0D801ED91FC910484F58575
:1013F000E02D4F2D64EEC8010995C82BD92BD5FEE1
:101400000CC0D801ED91FC910484F585E02D4F2DA1
:1014100065EEC8010995C82BD92BD6FE0CC0D801A2
:10142000ED91FC910484F585E02D4F2D66EEC80109
:101430000995C82BD92BD7FE0CC0D801ED91FC9192
:101440000484F585E02D4F2D67EEC8010995C82B62
:10145000D92BCE01DF91CF911F910F91FF90DF909B
:10146000CF9008950F931F93CF93DF93EC0140E04B
:101470000E949A098C01892B39F0E881F981028454
:10148000F385E02DCE010995C801DF91CF911F9121
:101490000F9108950F931F93CF93DF93EC0141E0D9
:1014A0000E949A098C01892B39F0E881F981028424
:1014B000F385E02DCE010995C801DF91CF911F91F1
:1014C0000F910895FF920F931F93CF93DF938C0199
:1014D000F62E0E944A0AEC01892B21F06F2DC801DB
:1014E0000E94320ACE01DF91CF911F910F91FF90A0
:1014F0000895FC01862F22E330E03383228320E924
:1015000031E03583248320E233E03783268313865A
:1015100012861586148617861686118A108A138AF3
:10152000128A158A148A178A168A118E108E138EC3
:10153000128E158E148E178E168E11A210A213A263
:1015400012A215A214A211A610A613A612A615A6E1
:1015500014A617A616A611AA10AA21E030E031AFF2
:1015600020AF608371831186108662E00C948F0433
:10157000FB0101900020E9F73197AF01461B570BA3
:10158000DC01ED91FC910280F381E02D0994BC0116
:1015900089E992E00C94B80ACF93DF93BC018BE306
:1015A00092E00E94B80AEC016FE471E08BE392E0F4
:1015B0000E94B80A8C0F9D1FDF91CF910895CF93A1
:1015C000DF93EC018091BD029091BE02009759F02B
:1015D0002091BF023091C0022C173D0720F081E01E
:1015E000DF91CF910895BE016F5F7F4F0E94D016AB
:1015F000009789F09093BE028093BD02D093C00201
:10160000C093BF022091C1023091C202232B39F74F
:10161000FC011082E4CF80E0E3CF0F931F93CF93C0
:10162000DF938C01EC0109900020E9F72197C81B9A
:10163000D90BCE010E94DF0A2091BD023091BE027B
:10164000811117C02115310519F0C9010E944716F3
:101650001092BE021092BD021092C2021092C102FC
:101660001092C0021092BF02DF91CF911F910F9193
:101670000895D093C202C093C102B801C901DF919D
:10168000CF911F910F910C949F1782E591E00E94DA
:101690000D0B83EE0E946F0964E689E992E00E94D7
:1016A0004A0A0C94140982E591E00E940D0B0E94F5
:1016B000E80882E591E00C94CC0A8AE591E00C946C
:1016C0000D0B8AE591E00E940D0B0E94E8088AE567
:1016D00091E00C94CC0A88E691E00E940D0B83EE19
:1016E0000E946F0962E789E992E00E944A0A0E941B
:1016F000140968EC70E080E090E00E94F0048EE550
:1017000091E00E94C70A0E94820964E175E080E0CE
:1017100090E00E94F00482E691E00E94C70A66E22F
:1017200089E992E00E94620A0E94820964E670E000
:1017300080E090E00E94F00485E691E00E94C70AF4
:101740000E94820964E670E080E090E00E94F0046C
:1017500089E791E00E94C70A0E94820964EF71E064
:1017600080E090E00E94F00460E47FE180E090E09F
:101770000E94F00489E891E00E94C70A0E94820951
:101780008BE891E00E94C70A0C94820988E691E0F8
:101790000E940D0B0E94E80888E691E00C94CC0AA8
:1017A00084E991E00E940D0B83EE0E946F0962E7CD
:1017B00089E992E00E944A0A0E94140968EC70E0EC
:1017C00080E090E00E94F0048EE591E00E94C70A5C
:1017D0000E94820964E175E080E090E00E94F004DC
:1017E00082E691E00E94C70A66E289E992E00E94DF
:1017F000620A0E94820964E670E080E090E00E9444
:10180000F00481E991E00E94C70A0E94820964E61F
:1018100070E080E090E00E94F0048FE991E00E9487
:10182000C70A0E94820964EF71E080E090E00E94A4
:10183000F00460E47FE180E090E00E94F0048BEA35
:1018400091E00E94C70A0E9482098BEA91E00E94FF
:10185000C70A0C94820984E991E00E940D0B0E9452
:10186000E80884E991E00C94CC0A2091C1023091FF
:10187000C202232B39F421E0FC018081882361F02E
:1018800020E00AC0BC018091BD029091BE020E947E
:10189000961721E0892BA1F7822F08951F920F92AE
:1018A0000FB60F9211248F939F938091E100909136
:1018B000E100937F9093E10083FF0FC01092E90055
:1018C00091E09093EB001092EC0092E39093ED0086
:1018D00010923A0298E09093F00082FF22C093E0C9
:1018E0009093E9009091F200992319F09AE3909374
:1018F000E80090912F02992341F090912F0291508E
:1019000090932F02911101C05D9A90913902992311
:1019100041F090913902915090933902911101C098
:10192000289A84FF18C08091E2008E7E81608093A7
:10193000E2008091E1008F7E8093E100809130028F
:101940008E7E8061809330029F918F910F900FBEA9
:101950000F901F90189580FFF7CF8091E2008E7E48
:1019600080618093E2008091E1008E7E8093E100AF
:10197000809130028E7E8160E5CF1F920F920FB66C
:101980000F921124CF92DF92EF92FF920F931F9349
:101990002F933F934F935F936F937F938F939F9377
:1019A000AF93BF93EF93FF93CF93DF93CDB7DEB7A2
:1019B0006C97DEBFCDBF1092E9008091E80083FFF5
:1019C00025C068E0CE0145960E94EB0282EF80932D
:1019D000E8008D8987FF39C09091E80090FFFCCF27
:1019E000982F907609F034C19E894F89588D2F89A0
:1019F000F88C911131C0803861F58091310280936B
:101A0000F1001092F1008EEF8093E8006C960FB613
:101A1000F894DEBF0FBECDBFDF91CF91FF91EF9164
:101A2000BF91AF919F918F917F916F915F914F91F6
:101A30003F912F911F910F91FF90EF90DF90CF90EA
:101A40000F900FBE0F901F9018959EEF9093E80097
:101A5000C7CF1092F100D5CF913059F48111D3CF77
:101A60004130510581F6809131028D7F80933102A2
:101A7000CACF933049F48111C6CF4130510519F6D0
:101A8000809131028260F2CF953041F48091E8007C
:101A900080FFFCCF20682093E300B5CF963009F09B
:101AA000A9C00B8D1C8D22E01092E90010922D022E
:101AB00010922C02F2122EC010922B0210922A02C7
:101AC0000E9439031F8299E09983FA8291E09E83F4
:101AD00090EA98879AEF998720912C0230912D02F5
:101AE000275F3F4F3C832B838D831092E900109238
:101AF0002D0210922C0210932B0200932A0249E02F
:101B000050E0BE016F5F7F4F80E00E94B4020E94F0
:101B1000390379CF10932B0200932A020E942503E8
:101B2000DC0112960D911C910115110509F451C1AA
:101B3000D801ED91FC910480F581E02DBE016B5E32
:101B40007F4FC8010995009709F03EC1F801008553
:101B50001185EACFF3E0FF120EC08F89882309F4C4
:101B600040C0823061F440E862E183E993E00E9482
:101B70008102811148CF81E28093EB0047CF813011
:101B800029F440E868E08AE893E0F1CF833099F7E0
:101B90000E942503DC011296ED90FC908E010F5FF0
:101BA0001F4F6801E114F10479F0D701ED91FC9128
:101BB0000680F781E02DB801C7010995080F111DB6
:101BC000F701E084F184EECFD8011C92F601019078
:101BD0000020E9F73197BF016C197D0940E0C6018B
:101BE000C6CF64E773E0FB01449150E080E80E94B7
:101BF000B40209CF973009F4BECF983021F481E0C8
:101C00008093F10000CF993009F0FDCE837009F088
:101C1000B2CFE1E0F1E081E031E096E321912223CF
:101C200071F08093E9003093EB00DF0111972C9164
:101C30002093EC009093ED008F5F873079F78EE76B
:101C40008093EA001092EA008F8980933A02DBCEFB
:101C50008B8D9C8D1092E90010922D0210922C0217
:101C600090932B0280932A02898D811192C08E89D4
:101C70009D89913A49F4813209F07DCF47E050E0E7
:101C80006BE071E080E0B3CF913209F074CF833222
:101C900069F48F89988DB0E0A0E08093070190935C
:101CA0000801A0930901B0930A01ADCE803269F416
:101CB0008091E80082FFFCCF67E08BE091E00E941A
:101CC000EB028BEF8093E8009ECE823209F09BCE30
:101CD0008F8980931201EEEFFFE7859194918B3FFE
:101CE0009C4D51F1E0E0F8E080910B0190910C01E6
:101CF000A0910D01B0910E01803B9440A105B1056A
:101D0000F1F48091120180FD1AC0EE3F8AE0F807DD
:101D100089F587E797E791838083809160008093BE
:101D20002E0288E19BE00FB6F894A895809360009E
:101D30000FBE9093600067CEEEEFFAE0D5CF8081C2
:101D400091818737974709F05ECEA8958091600012
:101D500088618093600080912E0280936000EE3F46
:101D60002AE0F20789F08091FE0A9091FF0A9183A0
:101D7000808349CE808191818737980751F2909373
:101D8000FF0A8093FE0AC5CF1092FF0A1092FE0A46
:101D90003ACE0E942503DC0112960D911C9101158B
:101DA000110509F4E8CED801ED91FC910190F08184
:101DB000E02DBE016B5E7F4FC8010995811123CED6
:101DC000F80100851185EBCF181619060CF41BCE0F
:101DD000D2CEF1E0FF12BECE68E773E004CF1F92CF
:101DE0000F920FB60F9211242F933F938F939F93CF
:101DF000AF93BF938091160290911702A0911802A1
:101E0000B09119023091150223E0230F2D3758F5B8
:101E10000196A11DB11D2093150280931602909387
:101E20001702A0931802B093190280911A029091A0
:101E30001B02A0911C02B0911D020196A11DB11DB3
:101E400080931A0290931B02A0931C02B0931D0270
:101E5000BF91AF919F918F913F912F910F900FBEA6
:101E60000F901F90189526E8230F0296A11DB11D13
:101E7000D2CF10923E0210923D0288EE93E0A0E095
:101E8000B0E080933F0290934002A0934102B09350
:101E9000420289E291E090933C0280933B028FEFF3
:101EA0009FEF909348028093470210929C021092F9
:101EB0009B028BE391E090939A0280939902809128
:101EC0009102811113C010928C0210928B0286EA4B
:101ED00093E090938E0280938D028BE390E0909339
:101EE000900280938F0281E0809391020E941A08F1
:101EF000FC01A385B485109709F083C08BE892E0BC
:101F0000948783878585968520918F0230919002F2
:101F1000820F931F968785878DE491E09093B4029A
:101F20008093B3028091AB02811113C01092A6027C
:101F30001092A50281EE93E09093A8028093A702ED
:101F400089E190E09093AA028093A90281E08093B6
:101F5000AB020E941A08FC01A385B485109709F012
:101F60005BC085EA92E0948783878585968520917A
:101F7000A9023091AA02820F931F9687858763E09A
:101F800070E081E793E00E94790A62E070E087E305
:101F900093E00E94790A65E070E08DEF92E00E9484
:101FA000790A64E070E083EC92E00E94790A109272
:101FB000BE021092BD021092C0021092BF02109297
:101FC000C2021092C10287E090E00E94DF0A2091D5
:101FD000BD023091BE02811129C02115310519F0D1
:101FE000C9010E9447161092BE021092BD021092C3
:101FF000C2021092C1021092C0021092BF02089554
:10200000DC018D919C9111970097D1F78BE892E0BC
:102010008D939C9377CFDC018D919C9111970097C4
:10202000D1F785EA92E08D939C939FCF87E090E073
:102030009093C2028093C10262E571E0C9010C94E1
:102040009F17789484B5826084BD84B5816084BD17
:1020500085B5826085BD85B5816085BD80916E0046
:10206000816080936E001092810080918100826077
:1020700080938100809181008160809381008091B4
:1020800080008160809380008091910082608093C5
:1020900091008091910081608093910080919000E7
:1020A0008160809390008091C10084608093C10022
:1020B0008091C10082608093C1008091C1008160E5
:1020C0008093C1008091C30081608093C3008091A0
:1020D000C00082608093C0008091C20081608093C4
:1020E000C20080917A00846080937A0080917A00A7
:1020F000826080937A0080917A00816080937A0078
:1021000080917A00806880937A0010923A0210924F
:102110003102109230028091D70081608093D70005
:1021200080EA8093D80089B5806189BD89B58260D5
:1021300089BD09B400FEFDCF61E070E080E090E071
:102140000E94F0048091D8008F7C80618093D80039
:102150008091E000807F8093E0008091E1008E7E9E
:102160008093E1008DE08093E200559A209A8FEFF2
:102170009FEF909348028093470261E081E10E94C3
:102180008F048BE29CE090937C0380937B0380ED33
:102190009BE090938203809381038091A9039091A7
:1021A000AA038230910514F482E090E09093AA0390
:1021B0008093A90361E083E00E94610486EC9BE0C8
:1021C00090934203809341038BE69BE090934803F6
:1021D0008093470380916F03909170038230910543
:1021E00014F482E090E09093700380936F0361E0B9
:1021F00082E00E94610481E69BE090930803809353
:1022000007038DE59BE090930E0380930D0380916F
:102210003503909136038230910514F482E090E00A
:10222000909336038093350361E085E00E9461045A
:1022300083E59BE09093CE028093CD0285E49BE002
:102240009093D4028093D3028091FB029091FC0280
:102250008230910514F482E090E09093FC02809328
:10226000FB0261E084E00E94610462E086E00E947B
:102270008F0461E086E00E94610462E087E00E94D2
:102280008F0461E087E00E94610462E088E00E94C0
:102290008F0461E088E00E94610462E089E00E94AE
:1022A0008F0461E089E00E94610460E082E10E94A5
:1022B0008F0460E08FE00E948F0462E083E10E945F
:1022C0008F0461E084E10E948F0461E084E10E9458
:1022D000610461E085E10E948F0460E085E10E9475
:1022E000610482E10E94380421E0892B09F420E096
:1022F00020933302E5EBF2E088E0DF011D928A953E
:10230000E9F748E050E0BF0183EB92E00E949F08AC
:1023100089E992E00E94050989E992E00E948C080F
:1023200000E010E0D1E081E793E00E94DE0587E362
:1023300093E00E94DE058DEF92E00E94DE0583ECC3
:1023400092E00E94DE0582E591E00E94350C882330
:1023500009F4E6C086E00E943804892B71F583EE0B
:102360000E946F0962E789E992E00E944A0A0E948E
:10237000140968EC70E080E090E00E94F00482EBC9
:1023800091E00E94C70A88E20E946F090E94140926
:1023900068EE73E080E090E00E94F0048AEB91E048
:1023A0000E94C70A88E20E946F090E9414096CE229
:1023B00071E080E090E00E94F00487E00E94380421
:1023C000892BF9F483EE0E946F0962E789E992E0B4
:1023D0000E944A0A0E94140968EC70E080E090E0D4
:1023E0000E94F0048EED91E00E94C70A88E20E94EC
:1023F0006F090E9414096CE271E080E090E00E9495
:10240000F00488E00E943804892BF9F483EE0E94DE
:102410006F0962E789E992E00E944A0A0E94140962
:1024200068EC70E080E090E00E94F00483EE91E0C0
:102430000E94C70A88E20E946F090E94140960ED99
:1024400077E080E090E00E94F00489E00E94380488
:10245000892BF9F483EE0E946F0962E789E992E023
:102460000E944A0A0E94140968EC70E080E090E043
:102470000E94F0048BEE91E00E94C70A88E20E945D
:102480006F090E94140960E573EC80E090E00E94FF
:10249000F0040E94D205C0903502D0903602E09040
:1024A0003702F09038026C197D098E099F09693E48
:1024B000734081059105A0F182E10E943804C1E0DA
:1024C000892B09F4C0E0C093340280913302C8170D
:1024D00069F08FE00E943804C817190609F4D4C2C5
:1024E0008AEE90E00E94B008C093330283E10E941C
:1024F0003804892B09F0CBC280913202882371F015
:1025000082EE90E00E94B0080E94D20560933502EE
:102510007093360280933702909338021092320201
:1025200084E991E00E94350C882309F4C5C086E057
:102530000E943804892BE1F48FE30E946F0964E65E
:1025400070E080E090E00E94F0040E94140968EEC0
:1025500073E080E090E00E94F00482E50E946F0941
:1025600064E670E080E090E00E94F0040E941409AC
:1025700087E00E943804892B89F482E40E946F0965
:1025800064E670E080E090E00E94F0040E9414098C
:1025900068EE73E080E090E00E94F00488E00E9422
:1025A0003804892B89F48CE30E946F0964E670E09B
:1025B00080E090E00E94F0040E94140968EE73E04D
:1025C00080E090E00E94F00489E00E943804892BAA
:1025D00089F48EE30E946F0964E670E080E090E089
:1025E0000E94F0040E94140968EE73E080E090E01D
:1025F0000E94F0040E94D205C0903502D0903602AD
:10260000E0903702F09038026C197D098E099F091D
:10261000693E73408105910508F44EC082E10E9435
:102620003804C1E0892B09F4C0E0C09334028091E2
:102630003302C817D9F08FE00E943804C817190672
:1026400009F428C280EE0E946F096FE289E992E0E6
:102650000E944A0A6AE070E080E090E00E94F00484
:102660000E941409809134028093330283E10E9416
:102670003804892B09F013C2809132028823D1F0EB
:1026800080EE0E946F0963E789E992E00E944A0A9E
:1026900064E670E080E090E00E94F0040E9414097B
:1026A0000E94D20560933502709336028093370200
:1026B000909338021092320288E691E00E94350C25
:1026C000882309F4F9C086E00E943804892BB1F40C
:1026D0008AE30E946F0964E670E080E090E00E9467
:1026E000F0040E9414098BE30E946F0964E670E015
:1026F00080E090E00E94F0040E94140987E00E94AC
:102700003804892B59F48DE30E946F0964E670E068
:1027100080E090E00E94F0040E94140988E00E948A
:102720003804892B51F58DE30E946F0964E670E04F
:1027300080E090E00E94F0040E94140987EF91E08D
:102740000E94C70A88E20E946F0964E670E080E098
:1027500090E00E94F0040E94140982EE0E946F092A
:1027600061E489E992E00E944A0A0E94140964E641
:1027700070E080E090E00E94F00489E00E9438045C
:10278000892B09F041C082EE0E946F0964E670E077
:1027900080E090E00E94F00462E789E992E00E9404
:1027A0004A0A62E789E992E00E94320A64E670E030
:1027B00080E090E00E94F00466E789E992E00E94E0
:1027C0004A0A66E789E992E00E94320A64E670E00C
:1027D00080E090E00E94F00466E789E992E00E94C0
:1027E0004A0A66E789E992E00E94320A64E670E0EC
:1027F00080E090E00E94F0040E94140964E670E01A
:1028000080E090E00E94F0040E94D205C090350262
:10281000D0903602E0903702F09038026C197D09B2
:102820008E099F09693E73408105910508F444C0F3
:1028300082E10E943804C1E0892B09F4C0E0C09312
:10284000340280913302C817A1F08FE00E9438044F
:10285000C817190609F426C180E50E946F096AE0CD
:1028600070E080E090E00E94F0040E941409C093A0
:10287000330283E10E943804892B09F015C180914D
:1028800032028823B9F060E289E992E00E944A0AA4
:1028900064E670E080E090E00E94F0040E94140979
:1028A0000E94D205609335027093360280933702FE
:1028B00090933802109232028AE591E00E94350C22
:1028C000882309F4DAC086E00E943804892BB1F429
:1028D00082EE0E946F0981EE0E946F0980EE0E94D5
:1028E0006F0961E389E992E00E944A0A64E670E0B8
:1028F00080E090E00E94F0040E94140987E00E94AA
:102900003804892BB1F482EE0E946F0981EE0E9497
:102910006F0980EE0E946F0962E389E992E00E94EC
:102920004A0A64E670E080E090E00E94F0040E94B1
:10293000140988E00E943804892BB1F482EE0E94C9
:102940006F0981EE0E946F0980EE0E946F0963E3B8
:1029500089E992E00E944A0A64E670E080E090E033
:102960000E94F0040E94140989E00E943804892B17
:10297000B1F482EE0E946F0981EE0E946F0980EE31
:102980000E946F0964E389E992E00E944A0A64E6C2
:1029900070E080E090E00E94F0040E9414090E9420
:1029A000D205C0903502D0903602E0903702F09008
:1029B00038026C197D098E099F09693E73408105B3
:1029C000910508F45AC082E10E943804C1E0892BC5
:1029D00009F4C0E0C093340280913302C81709F1B2
:1029E0008FE00E943804C817190609F460C082EE0F
:1029F0000E946F0981EE0E946F0980EE0E946F09AC
:102A000065E389E992E00E944A0A6AE070E080E0AA
:102A100090E00E94F0040E94140980913402809397
:102A2000330283E10E943804892B09F04BC0809166
:102A30003202882301F182EE0E946F0981EE0E942A
:102A40006F0980EE0E946F0967E389E992E00E94B6
:102A50004A0A6AE070E080E090E00E94F0040E9480
:102A600014090E94D2056093350270933602809358
:102A7000370290933802109232020115110509F4C1
:102A800052CC0E9400004FCC89EE90E02BCDD09329
:102A9000320246CD80EE0E946F096DE5D7CDD0930E
:102AA00032020ACE8FE4D9CED093320205CF82EE25
:102AB0000E946F0981EE0E946F0980EE0E946F09EB
:102AC00066E39FCFD0933202D8CF8091BD02909120
:102AD000BE02009711F00C94471608952F923F9272
:102AE0004F925F926F927F928F929F92AF92BF921E
:102AF000CF92DF92EF92FF920F931F93CF93DF93CA
:102B0000CDB7DEB7CA1BDB0B0FB6F894DEBF0FBE26
:102B1000CDBF09942A88398848885F846E847D8473
:102B20008C849B84AA84B984C884DF80EE80FD8075
:102B30000C811B81AA81B981CE0FD11D0FB6F894EB
:102B4000DEBF0FBECDBFED010895EE0FFF1F059054
:102B5000F491E02D09940F931F93CF93DF9382306C
:102B6000910510F482E090E0E091AD03F091AE03A6
:102B700030E020E0B0E0A0E0309799F42115310575
:102B800009F44AC0281B390B24303105D8F58A8155
:102B90009B816115710589F1FB0193838283FE019D
:102BA00011C0408151810281138148175907E0F01B
:102BB0004817590799F4109761F012960C931297E1
:102BC00013961C933296CF01DF91CF911F910F91F5
:102BD00008950093AD031093AE03F4CF2115310592
:102BE00051F04217530738F0A901DB019A01BD01EA
:102BF000DF01F801C1CFEF01F9CF9093AE038093CD
:102C0000AD03CDCFFE01E20FF31F819391932250CC
:102C1000310939832883D7CF2091AB033091AC039E
:102C2000232B41F420911501309116013093AC0310
:102C30002093AB032091130130911401211531052C
:102C400041F42DB73EB74091170150911801241B54
:102C5000350BE091AB03F091AC03E217F307A0F45E
:102C60002E1B3F0B2817390778F0AC014E5F5F4FE2
:102C70002417350748F04E0F5F1F5093AC03409365
:102C8000AB03819391939FCFF0E0E0E09CCFCF9393
:102C9000DF930097E9F0FC01329713821282A09132
:102CA000AD03B091AE03ED0130E020E01097A1F448
:102CB00020813181820F931F2091AB033091AC03AF
:102CC0002817390709F061C0F093AC03E093AB0318
:102CD000DF91CF910895EA01CE17DF07E8F54A8129
:102CE0005B819E0141155105B1F7E901FB83EA8340
:102CF00049915991C40FD51FEC17FD0761F48081EC
:102D000091810296840F951FE901998388838281BE
:102D100093819B838A83F0E0E0E012968D919C91F1
:102D200013970097B9F52D913C911197CD0102961B
:102D3000820F931F2091AB033091AC032817390702
:102D400039F6309751F51092AE031092AD03B0935F
:102D5000AC03A093AB03BCCFD383C283408151812A
:102D6000840F951FC817D90761F44E5F5F4F8881A4
:102D70009981480F591F518340838A819B81938396
:102D800082832115310509F0B0CFF093AE03E093B3
:102D9000AD039ECFFD01DC01C0CF13821282D7CFDD
:102DA000B0E0A0E0E6EDF6E10C9470158C01009720
:102DB00051F4CB010E94AB158C01C801CDB7DEB731
:102DC000E0E10C948C15FC01E60FF71F9C012250EA
:102DD0003109E217F30708F49DC0D901CD91DC91C8
:102DE0001197C617D70798F0C530D10530F3CE013B
:102DF00004978617970708F3C61BD70B2297C19332
:102E0000D1936D937C93CF010E944716D6CF5B017F
:102E1000AC1ABD0A4C018C0E9D1EA091AD03B09161
:102E2000AE03512C412CF12CE12C109731F58091FF
:102E3000AB039091AC038815990509F05CC0461668
:102E4000570608F058C08091130190911401009723
:102E500041F48DB79EB74091170150911801841B22
:102E6000950BE817F90708F055C0F093AC03E09311
:102E7000AB03F90171836083A0CF8D919C91119771
:102E800012966C90129713967C901397A815B9051B
:102E900059F56C0142E0C40ED11CCA14DB0420F1C8
:102EA000AC014A195B09DA011296159780F062822B
:102EB000738251834083D9016D937C93E114F104B3
:102EC00071F0D7011396FC93EE93129776CF22966A
:102ED0008C0F9D1FF90191838083F301EFCFF09355
:102EE000AE03E093AD0369CF4816590608F42C01F0
:102EF0007D01D3019ACFCB010E94AB157C010097D5
:102F000049F0AE01B8010E948D17C8010E94471612
:102F1000870153CF10E000E050CFFB01DC0102C07D
:102F200001900D9241505040D8F70895FB01DC010B
:102F30008D91019080190110D9F3990B0895FB012F
:102F4000DC0101900D920020E1F7089511E0CEEF31
:102F5000D1E004C0FE010E94A5152196CF3FD10704
:102F6000C9F7F894FFCF00C18081000000FFFFFF88
:102F7000FF00E10000000000000000AF038000003F
:102F80000000002107CF0794077907000000006ABE
:102F900003BC058B038003D2039003AE0300000043
:102FA00000620AF8029C089B0805098C08250900A4
:102FB0000000009F080D0A0077696E646F77730048
:102FC0006F627300636D6400636400636420436F29
:102FD0006D7075746163696F6E20506C757300431A
:102FE0006F6D7075746163696F6E2E657865003002
:102FF0000061646D696E00636420534754616C6CBA
:103000006572203300536572766963652E65786555
:103010000076656E746173006E6F74657061640034
:103020004172636869766F204162696572746F20CE
:103030006465736465204D6163726F4B6579426F9F
:103040006172640063616C63006D737061696E74BA
:1030500000657863656C202F7361666500333032DC
:0230600000006E
:1070000055C000006EC000006CC000006AC00000E7
:1070100068C0000066C0000064C0000062C00000DC
:1070200060C000005EC00000FCC400005AC0000048
:1070300058C0000056C0000054C0000052C00000FC
:1070400050C000005DC000004CC000004AC00000FD
:1070500048C0000046C0000044C0000042C000001C
:1070600040C000003EC000003CC000003AC000002C
:1070700038C0000036C0000034C0000032C000003C
:1070800030C000002EC000002CC000002AC000004C
:1070900028C0000026C0000024C0000022C000005C
:1070A00020C000001EC000001CC0000011241FBE34
:1070B000CFEFDAE0DEBFCDBF11E0A0E0B1E0E6E463
:1070C000FFE702C005900D92A43BB107D9F711E08C
:1070D000A4EBB1E001C01D92AD3CB107E1F74FD385
:1070E00030C78ECFF89410926F001092810081E02B
:1070F00085BF15BE47985D9A289A0C9400000895A4
:107100001F920F920FB60F9211242F938F939F937C
:10711000EF93FF9310928500109284008091B40148
:107120009091B501009741F001979093B50180933C
:10713000B401892B09F45D9A8091B6019091B70151
:10714000009741F001979093B7018093B601892B86
:1071500009F4289A8091BA019091BB01019690930D
:10716000BB018093BA01E0E0F0E0859194918F5FDC
:107170009F4F49F08091B8019091B9010196909389
:10718000B9018093B801FF91EF919F918F912F9159
:107190000F900FBE0F901F90189584E08093E90028
:1071A0000DC08091E8008B778093E80003C08EB318
:1071B000882351F08091E80082FFF9CF8091E800A8
:1071C00085FFEFCF8091F1000895982F83E08093A1
:1071D000E9008091E80085FD0DC08091E8008E7780
:1071E0008093E80003C08EB3882369F08091E800A3
:1071F00080FFF9CF9093F1005D9884E690E0909342
:10720000B5018093B40108954F925F926F927F927F
:107210008F929F92AF92BF92CF92DF92EF92FF92A6
:107220000F931F93CF93DF9384E08093E9008091C5
:10723000E80082FF57C2289884E690E09093B70157
:107240008093B601AADF182F853481F48CE49DE188
:107250009093B9018093B80107B600FCFDCFF9996E
:10726000FECF81E180935700E89503C0843519F47F
:1072700094DF8DE00DC28C34E1F38035D1F3843797
:1072800021F484E4A2DF80E003C2813611F489E5B1
:10729000FFC18134B1F481DF182F7FDF90E0880FC8
:1072A000991FAA2797FDA095BA2F312F330F20E001
:1072B000442737FD4095542F822B932BA42BB52BBD
:1072C000B8C1803711F483E5E3C1833549F4C0E0E8
:1072D000D1E089917ADF21E0C730D207D1F7D9C157
:1072E000863521F481E371DF80E3D2C1833731F445
:1072F00087E86BDF85E969DF8EE1CAC18536B9F4BD
:10730000E0E0F0E093E085E090935700E89507B661
:1073100000FCFDCF80935700E89507B600FCFDCF39
:10732000E058FF4FA0E7E030FA0771F7A2CF8237AD
:1073300039F4E1E0F0E089E0809357008491A8C13E
:10734000863439F4E0E0F0E089E0809357008491DE
:107350009FC18E3439F4E3E0F0E089E08093570078
:10736000849196C1813539F4E2E0F0E089E08093C0
:10737000570084918DC1823631F489E526DF80E0A3
:1073800024DF80E885C1823419F0873609F0E5C032
:107390001092B9011092B80100DF082FFEDEF82E1E
:1073A000FCDE682E8554823008F071C1902F80E099
:1073B000CF2DD0E0C82BD92B10926F00173609F0D3
:1073C0004BC081E180935700E895DD24CC24C39421
:1073D0003FC0E090BD01F090BE010091BF0110914F
:1073E000C001B6E46B16D9F4ED2DF0E0EE29FF29CB
:1073F000E4918E2FEADEDD2081F082E090E0A0E0D3
:10740000B0E0E80EF91E0A1F1B1FE092BD01F092CA
:10741000BE010093BF011093C001DC2418C0D80145
:10742000C701B695A7959795879575D5CEDE82E06D
:1074300090E0A0E0B0E0E80EF91E0A1F1B1FE092EA
:10744000BD01F092BE010093BF011093C0012197CE
:10745000209709F0BECF7DC08090BD019090BE0105
:10746000A090BF01B090C00196E4691609F05DC01C
:1074700083E0F40180935700E89507B600FCFDCF48
:1074800054C0F6E46F1661F5772031F1E090BD014C
:10749000F090BE010091BF011091C0017EDED82E98
:1074A000CC24852D90E08C299D29F7010C01409278
:1074B0005700E895112482E090E0A0E0B0E0E80EEB
:1074C000F91E0A1F1B1FE092BD01F092BE0100933E
:1074D000BF011093C00102C060DE582E742423C087
:1074E000E090BD01F090BE010091BF011091C0017C
:1074F00016950795F794E79450DE682FC70113D5CA
:107500008091BD019091BE01A091BF01B091C001D9
:107510000296A11DB11D8093BD019093BE01A09361
:10752000BF01B093C001219704C05524772444249F
:107530004394209709F0A5CF96E4691641F485E0BD
:10754000F40180935700E89507B600FCFDCF8DE06D
:107550003CDE82E080936F009CC0833471F4009124
:10756000BD011091BE0119DE90E021E0F8010C018F
:1075700020935700E89511247CCE833619F5E090CE
:10758000BD01F090BE010091BF011091C00105DE68
:10759000F701E16090E021E00C0120935700E895AD
:1075A000112482E090E0A0E0B0E0E80EF91E0A1F8E
:1075B0001B1FE092BD01F092BE010093BF0110932A
:1075C000C00157CE8D3661F4E091BD01F091BE014E
:1075D00085E080935700E89507B600FCFDCF49CEC3
:1075E000823551F4E091BD01F091BE0105911491F5
:1075F000812FEBDD802F4CC0843421F5E090BD015C
:10760000F090BE010091BF011091C0011695079541
:10761000F794E794C2DD682FC70185D48091BD013E
:107620009091BE01A091BF01B091C0010296A11D31
:10763000B11D8093BD019093BE01A093BF01B09393
:10764000C00117CE843609F5E090BD01F090BE016F
:107650000091BF011091C001D801C701B695A7954F
:107660009795879558D4B1DD82E090E0A0E0B0E036
:10767000E80EF91E0A1F1B1FE092BD01F092BE0129
:107680000093BF011093C00104C08B3111F08FE350
:107690009CDD83E08093E9009091E8008091E80010
:1076A0008E778093E80095FF04C010C08EB38823C6
:1076B000C9F08091E80080FFF9CF8091E8008E77D3
:1076C0008093E80003C08EB3882361F08091E800C6
:1076D00080FFF9CF84E08093E9008091E8008B7708
:1076E0008093E800DF91CF911F910F91FF90EF9071
:1076F000DF90CF90BF90AF909F908F907F906F90D2
:107700005F904F9008959091C501892F8F778132B6
:1077100049F58091C6018032A1F0813219F5913A84
:1077200009F58091E800877F8093E8008CE091E084
:1077300067E070E027D28091E8008B778093E800C3
:107740000895913279F48091E800877F8093E80072
:107750008CE091E067E070E079D28091E8008E776C
:107760008093E800089582E061EC42E0D1D083E0AC
:1077700061E842E1CDD084E060E842E1C9C01F93F6
:10778000209100081092000844B714BE88E10FB69B
:10779000F89480936000109260000FBE80E8E0E0F3
:1077A000F0E00FB6F89480936100E09361000FBEA3
:1077B00031E035BF92E095BF3F9A209A559A809369
:1077C00061001092610047985D9A289A1092890092
:1077D0008AEF8093880090936F0083E0809381000C
:1077E000859194918F5F9F4F11F03093BC01942F3E
:1077F00041FF19C0809109012817A9F08093000862
:10780000789480911301882339F08091BA01909186
:10781000BB018F5E9240C8F3F8941092000881E09B
:10782000809313010CC090FF04C08091BC01882399
:1078300051F493FF09C080910901281729F0809124
:10784000BC01882309F04EDCD4D078941092B901A1
:107850001092B8011EEF20C0D7DC4BD38091B80145
:107860009091B90181549F4110F0109213018091C1
:10787000C1019091C20101969093C2018093C10110
:10788000292F97FF03C0512F591B252F220F28178F
:1078900010F4479801C0479A809113018823E1F6BC
:1078A0008091E00081608093E0001CDC80E090E04B
:1078B0001F910895FA01923049F0933061F09130B0
:1078C000F9F484E191E022E130E01EC086E291E02B
:1078D0002EE330E019C0882329F484E691E024E007
:1078E00030E012C0813029F488E691E02EE130E0EA
:1078F0000BC0823029F488E891E02AE230E004C02D
:1079000080E090E020E030E091838083C901089519
:107910008093E9008091EB0081608093EB001092EE
:10792000ED006093EC004093ED008091EE00881F25
:107930008827881F08958091C50188238CF403C08F
:107940008EB38823B1F08091E80082FFF9CF809157
:10795000E8008B778093E80008958EB3882349F080
:107960008091E80080FFF9CF8091E8008E778093C6
:10797000E8000895EF92FF920F931F9345D04CD0EB
:1079800008ED10E0F80180818F7780838081806826
:10799000808380818F7D808319BC1EBA1092C301C1
:1079A00080EEE82EF12CF70180818B7F8083F80137
:1079B00080818160808380E060E042E0A9DFE1EEC9
:1079C000F0E080818E7F8083E2EEF0E08081816054
:1079D0008083808188608083F70180818E7F8083AF
:1079E000F8018081806180831F910F91FF90EF905B
:1079F0000895E7EDF0E08081816080838AE482BFB2
:107A000081E08093C401B6CFE8EDF0E080818E7F05
:107A100080831092E20008951092DA001092E10043
:107A200008951F920F920FB60F9211242F933F9338
:107A30004F935F936F937F938F939F93AF93BF9376
:107A4000EF93FF938091DA0080FF1BC08091D800F4
:107A500080FF17C08091DA008E7F8093DA008091DA
:107A6000D90080FF0BC080E189BD82E189BD09B4E6
:107A700000FEFDCF81E08EBB3BD203C019BC1EBA15
:107A800037D28091E10080FF17C08091E20080FF33
:107A900013C08091E2008E7F8093E2008091E2002B
:107AA00080618093E2008091D80080628093D8004A
:107AB00019BC85E08EBB1CD28091E10084FF2CC0F4
:107AC0008091E20084FF28C080E189BD82E189BD08
:107AD00009B400FEFDCF8091D8008F7D8093D8003F
:107AE0008091E1008F7E8093E1008091E2008F7EA3
:107AF0008093E2008091E20081608093E2008091B7
:107B0000C301882331F48091E30087FD02C081E046
:107B100001C084E08EBBECD18091E10083FF21C0E5
:107B20008091E20083FF1DC08091E100877F8093F8
:107B3000E10082E08EBB1092C3018091E1008E7F54
:107B40008093E1008091E2008E7F8093E20080913B
:107B5000E20080618093E20080E060E042E0D8DEF5
:107B6000C7D1FF91EF91BF91AF919F918F917F917D
:107B70006F915F914F913F912F910F900FBE0F909A
:107B80001F9018959C014091CB015091CC01461754
:107B9000570718F4F90190E044C06115710511F020
:107BA000AB01F8CF8091E8008E778093E80040E049
:107BB00050E0F0CF8EB3882309F444C0853009F437
:107BC00043C08091E80083FF02C081E00895809166
:107BD000E80082FD31C08091E80080FF22C08091E2
:107BE000F3009091F200782F60E0292F30E0262BEF
:107BF000372B07C081918093F100415050402F5F97
:107C00003F4F4115510519F02830310598F390E0A8
:107C10002830310509F491E08091E8008E77809357
:107C2000E8004115510531F6992321F605C08EB3C0
:107C3000882341F0853041F08091E80082FFF7CF42
:107C400080E0089582E0089583E008959C01611525
:107C5000710529F48091E8008B778093E800F901A1
:107C600026C08EB3882391F1853091F18091E80090
:107C700083FF02C081E008958091E80082FFF1CF88
:107C800006C08091F10081936150704059F02091BD
:107C9000F3008091F200322F20E090E0822B932BB2
:107CA000892B79F78091E8008B778093E800611544
:107CB0007105B9F605C08EB3882341F0853041F0D7
:107CC0008091E80080FFF7CF80E0089582E008957A
:107CD00083E008950F931F93DF93CF9300D0CDB728
:107CE000DEB7E5ECF1E08091F100819381E0ED3CBD
:107CF000F807C9F708DD8091E80083FFE4C08091B0
:107D0000C5019091C601953009F46DC0963040F4DC
:107D1000913081F1913070F0933009F0D4C02AC0D5
:107D2000983009F4A3C0993009F4B2C0963009F034
:107D3000CAC07CC0803809F4C6C0823809F0C3C00C
:107D40008091C90187708093E9008091EB001092C7
:107D5000E9002091E800277F2093E80090E025E0EB
:107D6000969587952A95E1F781708093F10010929E
:107D7000F10087C0882319F0823009F0A4C08F7108
:107D8000823009F0A0C08091C701882331F520918D
:107D9000C901277009F497C02093E9008091EB0096
:107DA00080FF1BC0933021F48091EB00806213C0F0
:107DB0008091EB0080618093EB0081E090E002C055
:107DC000880F991F2A95E2F78093EA001092EA0043
:107DD0008091EB0088608093EB001092E900809125
:107DE000E800877F51C0882309F06DC01091C7015A
:107DF0001F770FB7F8948091E800877F8093E800A1
:107E00009ADD8091E80080FFFCCF8091E3008078CC
:107E1000812B8093E30080688093E300112311F4A9
:107E200082E001C083E08EBB0FBF4DC0805882301E
:107E300008F049C08091C7019091C8016091C901C3
:107E4000AE014F5F5F4F36DDBC01009709F43BC0C8
:107E50008091E800877F8093E80089819A8192DE93
:107E60008091E8008B778093E8002DC0803859F529
:107E70008091E800877F8093E8008091C301809320
:107E8000F1008091E8008E778093E80054DD1BC0FC
:107E90008823C9F49091C7019230A8F48091E8003A
:107EA000877F8093E8009093C30145DD8091C301F3
:107EB000882331F48091E30087FD02C081E001C096
:107EC00084E08EBB50DC8091E80083FF0AC0809183
:107ED000EB0080628093EB008091E800877F8093C5
:107EE000E8000F900F90CF91DF911F910F910895AF
:107EF00008951F938EB3882361F01091E9001092CA
:107F0000E9008091E80083FF01C0E4DE1770109360
:107F1000E9001F910895F999FECF92BD81BDF89AAD
:107F2000992780B50895262FF999FECF1FBA92BDE3
:107F300081BD20BD0FB6F894FA9AF99A0FBE01964A
:107F40000895F894FFCF4341544552494E4100777C
:107F500000080000000000000801120110010200EA
:107F600000084F1B059201000201000109023E00BA
:107F70000201008032090400000102020100052410
:107F800000100104240204052406000107058203F1
:107F90000800FF09040100020A00000007050402AE
:107FA00010000107058302100001040309041E03E9
:107FB000500072006F0020004D00690063007200E5
:107FC0006F002000350056002000200000002A032A
:107FD00053007000610072006B00460075006E0077
:107FE000200045006C0065006300740072006F00A3
:0A7FF0006E006900630073000000DA
:00000001FF
